{"abi":[{"inputs":[{"internalType":"uint256","name":"minimum","type":"uint256"}],"name":"createCampaign","outputs":[],"stateMutability":"nonpayable","type":"function"},{"inputs":[{"internalType":"uint256","name":"","type":"uint256"}],"name":"deployedCampaigns","outputs":[{"internalType":"address","name":"","type":"address"}],"stateMutability":"view","type":"function"},{"inputs":[],"name":"getDeployedCampaigns","outputs":[{"internalType":"address[]","name":"","type":"address[]"}],"stateMutability":"view","type":"function"}],"devdoc":{"kind":"dev","methods":{},"version":1},"evm":{"assembly":"    /* \"Campaign.sol\":33:400  contract CampaignFactory {... */\n  mstore(0x40, 0x80)\n  callvalue\n  dup1\n  iszero\n  tag_1\n  jumpi\n  0x00\n  dup1\n  revert\ntag_1:\n  pop\n  dataSize(sub_0)\n  dup1\n  dataOffset(sub_0)\n  0x00\n  codecopy\n  0x00\n  return\nstop\n\nsub_0: assembly {\n        /* \"Campaign.sol\":33:400  contract CampaignFactory {... */\n      mstore(0x40, 0x80)\n      callvalue\n      dup1\n      iszero\n      tag_1\n      jumpi\n      0x00\n      dup1\n      revert\n    tag_1:\n      pop\n      jumpi(tag_2, lt(calldatasize, 0x04))\n      shr(0xe0, calldataload(0x00))\n      dup1\n      0x339d50a5\n      eq\n      tag_3\n      jumpi\n      dup1\n      0x4acb9d4f\n      eq\n      tag_4\n      jumpi\n      dup1\n      0xa3303a75\n      eq\n      tag_5\n      jumpi\n    tag_2:\n      0x00\n      dup1\n      revert\n        /* \"Campaign.sol\":64:98  address[] public deployedCampaigns */\n    tag_3:\n      tag_6\n      0x04\n      dup1\n      calldatasize\n      sub\n      dup2\n      add\n      swap1\n      tag_7\n      swap2\n      swap1\n      tag_8\n      jump\t// in\n    tag_7:\n      tag_9\n      jump\t// in\n    tag_6:\n      mload(0x40)\n      tag_10\n      swap2\n      swap1\n      tag_11\n      jump\t// in\n    tag_10:\n      mload(0x40)\n      dup1\n      swap2\n      sub\n      swap1\n      return\n        /* \"Campaign.sol\":286:398  function getDeployedCampaigns() public view returns (address[] memory) {... */\n    tag_4:\n      tag_12\n      tag_13\n      jump\t// in\n    tag_12:\n      mload(0x40)\n      tag_14\n      swap2\n      swap1\n      tag_15\n      jump\t// in\n    tag_14:\n      mload(0x40)\n      dup1\n      swap2\n      sub\n      swap1\n      return\n        /* \"Campaign.sol\":105:280  function createCampaign(uint256 minimum) public {... */\n    tag_5:\n      tag_16\n      0x04\n      dup1\n      calldatasize\n      sub\n      dup2\n      add\n      swap1\n      tag_17\n      swap2\n      swap1\n      tag_8\n      jump\t// in\n    tag_17:\n      tag_18\n      jump\t// in\n    tag_16:\n      stop\n        /* \"Campaign.sol\":64:98  address[] public deployedCampaigns */\n    tag_9:\n      0x00\n      dup2\n      dup2\n      sload\n      dup2\n      lt\n      tag_19\n      jumpi\n      0x00\n      dup1\n      revert\n    tag_19:\n      swap1\n      0x00\n      mstore\n      keccak256(0x00, 0x20)\n      add\n      0x00\n      swap2\n      pop\n      sload\n      swap1\n      0x0100\n      exp\n      swap1\n      div\n      0xffffffffffffffffffffffffffffffffffffffff\n      and\n      dup2\n      jump\t// out\n        /* \"Campaign.sol\":286:398  function getDeployedCampaigns() public view returns (address[] memory) {... */\n    tag_13:\n        /* \"Campaign.sol\":339:355  address[] memory */\n      0x60\n        /* \"Campaign.sol\":374:391  deployedCampaigns */\n      0x00\n        /* \"Campaign.sol\":367:391  return deployedCampaigns */\n      dup1\n      sload\n      dup1\n      0x20\n      mul\n      0x20\n      add\n      mload(0x40)\n      swap1\n      dup2\n      add\n      0x40\n      mstore\n      dup1\n      swap3\n      swap2\n      swap1\n      dup2\n      dup2\n      mstore\n      0x20\n      add\n      dup3\n      dup1\n      sload\n      dup1\n      iszero\n      tag_22\n      jumpi\n      0x20\n      mul\n      dup3\n      add\n      swap2\n      swap1\n      0x00\n      mstore\n      keccak256(0x00, 0x20)\n      swap1\n    tag_23:\n      dup2\n      0x00\n      swap1\n      sload\n      swap1\n      0x0100\n      exp\n      swap1\n      div\n      0xffffffffffffffffffffffffffffffffffffffff\n      and\n      0xffffffffffffffffffffffffffffffffffffffff\n      and\n      dup2\n      mstore\n      0x20\n      add\n      swap1\n      0x01\n      add\n      swap1\n      dup1\n      dup4\n      gt\n      tag_23\n      jumpi\n    tag_22:\n      pop\n      pop\n      pop\n      pop\n      pop\n      swap1\n      pop\n        /* \"Campaign.sol\":286:398  function getDeployedCampaigns() public view returns (address[] memory) {... */\n      swap1\n      jump\t// out\n        /* \"Campaign.sol\":105:280  function createCampaign(uint256 minimum) public {... */\n    tag_18:\n        /* \"Campaign.sol\":163:183  Campaign newCampaign */\n      0x00\n        /* \"Campaign.sol\":199:206  minimum */\n      dup2\n        /* \"Campaign.sol\":208:218  msg.sender */\n      caller\n        /* \"Campaign.sol\":186:219  new Campaign(minimum, msg.sender) */\n      mload(0x40)\n      tag_25\n      swap1\n      tag_26\n      jump\t// in\n    tag_25:\n      tag_27\n      swap3\n      swap2\n      swap1\n      tag_28\n      jump\t// in\n    tag_27:\n      mload(0x40)\n      dup1\n      swap2\n      sub\n      swap1\n      0x00\n      create\n      dup1\n      iszero\n      dup1\n      iszero\n      tag_29\n      jumpi\n      returndatasize\n      0x00\n      dup1\n      returndatacopy\n      revert(0x00, returndatasize)\n    tag_29:\n      pop\n        /* \"Campaign.sol\":163:219  Campaign newCampaign = new Campaign(minimum, msg.sender) */\n      swap1\n      pop\n        /* \"Campaign.sol\":229:246  deployedCampaigns */\n      0x00\n        /* \"Campaign.sol\":260:271  newCampaign */\n      dup2\n        /* \"Campaign.sol\":229:273  deployedCampaigns.push(address(newCampaign)) */\n      swap1\n      dup1\n      0x01\n      dup2\n      sload\n      add\n      dup1\n      dup3\n      sstore\n      dup1\n      swap2\n      pop\n      pop\n      0x01\n      swap1\n      sub\n      swap1\n      0x00\n      mstore\n      keccak256(0x00, 0x20)\n      add\n      0x00\n      swap1\n      swap2\n      swap1\n      swap2\n      swap1\n      swap2\n      0x0100\n      exp\n      dup2\n      sload\n      dup2\n      0xffffffffffffffffffffffffffffffffffffffff\n      mul\n      not\n      and\n      swap1\n      dup4\n      0xffffffffffffffffffffffffffffffffffffffff\n      and\n      mul\n      or\n      swap1\n      sstore\n      pop\n        /* \"Campaign.sol\":153:280  {... */\n      pop\n        /* \"Campaign.sol\":105:280  function createCampaign(uint256 minimum) public {... */\n      pop\n      jump\t// out\n    tag_26:\n      dataSize(sub_0)\n      dup1\n      dataOffset(sub_0)\n      dup4\n      codecopy\n      add\n      swap1\n      jump\t// out\n        /* \"#utility.yul\":7:146   */\n    tag_32:\n        /* \"#utility.yul\":53:58   */\n      0x00\n        /* \"#utility.yul\":91:97   */\n      dup2\n        /* \"#utility.yul\":78:98   */\n      calldataload\n        /* \"#utility.yul\":69:98   */\n      swap1\n      pop\n        /* \"#utility.yul\":107:140   */\n      tag_34\n        /* \"#utility.yul\":134:139   */\n      dup2\n        /* \"#utility.yul\":107:140   */\n      tag_35\n      jump\t// in\n    tag_34:\n        /* \"#utility.yul\":7:146   */\n      swap3\n      swap2\n      pop\n      pop\n      jump\t// out\n        /* \"#utility.yul\":152:481   */\n    tag_8:\n        /* \"#utility.yul\":211:217   */\n      0x00\n        /* \"#utility.yul\":260:262   */\n      0x20\n        /* \"#utility.yul\":248:257   */\n      dup3\n        /* \"#utility.yul\":239:246   */\n      dup5\n        /* \"#utility.yul\":235:258   */\n      sub\n        /* \"#utility.yul\":231:263   */\n      slt\n        /* \"#utility.yul\":228:347   */\n      iszero\n      tag_37\n      jumpi\n        /* \"#utility.yul\":266:345   */\n      tag_38\n      tag_39\n      jump\t// in\n    tag_38:\n        /* \"#utility.yul\":228:347   */\n    tag_37:\n        /* \"#utility.yul\":386:387   */\n      0x00\n        /* \"#utility.yul\":411:464   */\n      tag_40\n        /* \"#utility.yul\":456:463   */\n      dup5\n        /* \"#utility.yul\":447:453   */\n      dup3\n        /* \"#utility.yul\":436:445   */\n      dup6\n        /* \"#utility.yul\":432:454   */\n      add\n        /* \"#utility.yul\":411:464   */\n      tag_32\n      jump\t// in\n    tag_40:\n        /* \"#utility.yul\":401:464   */\n      swap2\n      pop\n        /* \"#utility.yul\":357:474   */\n      pop\n        /* \"#utility.yul\":152:481   */\n      swap3\n      swap2\n      pop\n      pop\n      jump\t// out\n        /* \"#utility.yul\":487:666   */\n    tag_41:\n        /* \"#utility.yul\":556:566   */\n      0x00\n        /* \"#utility.yul\":577:623   */\n      tag_43\n        /* \"#utility.yul\":619:622   */\n      dup4\n        /* \"#utility.yul\":611:617   */\n      dup4\n        /* \"#utility.yul\":577:623   */\n      tag_44\n      jump\t// in\n    tag_43:\n        /* \"#utility.yul\":655:659   */\n      0x20\n        /* \"#utility.yul\":650:653   */\n      dup4\n        /* \"#utility.yul\":646:660   */\n      add\n        /* \"#utility.yul\":632:660   */\n      swap1\n      pop\n        /* \"#utility.yul\":487:666   */\n      swap3\n      swap2\n      pop\n      pop\n      jump\t// out\n        /* \"#utility.yul\":672:780   */\n    tag_44:\n        /* \"#utility.yul\":749:773   */\n      tag_46\n        /* \"#utility.yul\":767:772   */\n      dup2\n        /* \"#utility.yul\":749:773   */\n      tag_47\n      jump\t// in\n    tag_46:\n        /* \"#utility.yul\":744:747   */\n      dup3\n        /* \"#utility.yul\":737:774   */\n      mstore\n        /* \"#utility.yul\":672:780   */\n      pop\n      pop\n      jump\t// out\n        /* \"#utility.yul\":786:904   */\n    tag_48:\n        /* \"#utility.yul\":873:897   */\n      tag_50\n        /* \"#utility.yul\":891:896   */\n      dup2\n        /* \"#utility.yul\":873:897   */\n      tag_47\n      jump\t// in\n    tag_50:\n        /* \"#utility.yul\":868:871   */\n      dup3\n        /* \"#utility.yul\":861:898   */\n      mstore\n        /* \"#utility.yul\":786:904   */\n      pop\n      pop\n      jump\t// out\n        /* \"#utility.yul\":940:1672   */\n    tag_51:\n        /* \"#utility.yul\":1059:1062   */\n      0x00\n        /* \"#utility.yul\":1088:1142   */\n      tag_53\n        /* \"#utility.yul\":1136:1141   */\n      dup3\n        /* \"#utility.yul\":1088:1142   */\n      tag_54\n      jump\t// in\n    tag_53:\n        /* \"#utility.yul\":1158:1244   */\n      tag_55\n        /* \"#utility.yul\":1237:1243   */\n      dup2\n        /* \"#utility.yul\":1232:1235   */\n      dup6\n        /* \"#utility.yul\":1158:1244   */\n      tag_56\n      jump\t// in\n    tag_55:\n        /* \"#utility.yul\":1151:1244   */\n      swap4\n      pop\n        /* \"#utility.yul\":1268:1324   */\n      tag_57\n        /* \"#utility.yul\":1318:1323   */\n      dup4\n        /* \"#utility.yul\":1268:1324   */\n      tag_58\n      jump\t// in\n    tag_57:\n        /* \"#utility.yul\":1347:1354   */\n      dup1\n        /* \"#utility.yul\":1378:1379   */\n      0x00\n        /* \"#utility.yul\":1363:1647   */\n    tag_59:\n        /* \"#utility.yul\":1388:1394   */\n      dup4\n        /* \"#utility.yul\":1385:1386   */\n      dup2\n        /* \"#utility.yul\":1382:1395   */\n      lt\n        /* \"#utility.yul\":1363:1647   */\n      iszero\n      tag_61\n      jumpi\n        /* \"#utility.yul\":1464:1470   */\n      dup2\n        /* \"#utility.yul\":1458:1471   */\n      mload\n        /* \"#utility.yul\":1491:1554   */\n      tag_62\n        /* \"#utility.yul\":1550:1553   */\n      dup9\n        /* \"#utility.yul\":1535:1548   */\n      dup3\n        /* \"#utility.yul\":1491:1554   */\n      tag_41\n      jump\t// in\n    tag_62:\n        /* \"#utility.yul\":1484:1554   */\n      swap8\n      pop\n        /* \"#utility.yul\":1577:1637   */\n      tag_63\n        /* \"#utility.yul\":1630:1636   */\n      dup4\n        /* \"#utility.yul\":1577:1637   */\n      tag_64\n      jump\t// in\n    tag_63:\n        /* \"#utility.yul\":1567:1637   */\n      swap3\n      pop\n        /* \"#utility.yul\":1423:1647   */\n      pop\n        /* \"#utility.yul\":1410:1411   */\n      0x01\n        /* \"#utility.yul\":1407:1408   */\n      dup2\n        /* \"#utility.yul\":1403:1412   */\n      add\n        /* \"#utility.yul\":1398:1412   */\n      swap1\n      pop\n        /* \"#utility.yul\":1363:1647   */\n      jump(tag_59)\n    tag_61:\n        /* \"#utility.yul\":1367:1381   */\n      pop\n        /* \"#utility.yul\":1663:1666   */\n      dup6\n        /* \"#utility.yul\":1656:1666   */\n      swap4\n      pop\n        /* \"#utility.yul\":1064:1672   */\n      pop\n      pop\n      pop\n        /* \"#utility.yul\":940:1672   */\n      swap3\n      swap2\n      pop\n      pop\n      jump\t// out\n        /* \"#utility.yul\":1678:1796   */\n    tag_65:\n        /* \"#utility.yul\":1765:1789   */\n      tag_67\n        /* \"#utility.yul\":1783:1788   */\n      dup2\n        /* \"#utility.yul\":1765:1789   */\n      tag_68\n      jump\t// in\n    tag_67:\n        /* \"#utility.yul\":1760:1763   */\n      dup3\n        /* \"#utility.yul\":1753:1790   */\n      mstore\n        /* \"#utility.yul\":1678:1796   */\n      pop\n      pop\n      jump\t// out\n        /* \"#utility.yul\":1802:2024   */\n    tag_11:\n        /* \"#utility.yul\":1895:1899   */\n      0x00\n        /* \"#utility.yul\":1933:1935   */\n      0x20\n        /* \"#utility.yul\":1922:1931   */\n      dup3\n        /* \"#utility.yul\":1918:1936   */\n      add\n        /* \"#utility.yul\":1910:1936   */\n      swap1\n      pop\n        /* \"#utility.yul\":1946:2017   */\n      tag_70\n        /* \"#utility.yul\":2014:2015   */\n      0x00\n        /* \"#utility.yul\":2003:2012   */\n      dup4\n        /* \"#utility.yul\":1999:2016   */\n      add\n        /* \"#utility.yul\":1990:1996   */\n      dup5\n        /* \"#utility.yul\":1946:2017   */\n      tag_48\n      jump\t// in\n    tag_70:\n        /* \"#utility.yul\":1802:2024   */\n      swap3\n      swap2\n      pop\n      pop\n      jump\t// out\n        /* \"#utility.yul\":2030:2403   */\n    tag_15:\n        /* \"#utility.yul\":2173:2177   */\n      0x00\n        /* \"#utility.yul\":2211:2213   */\n      0x20\n        /* \"#utility.yul\":2200:2209   */\n      dup3\n        /* \"#utility.yul\":2196:2214   */\n      add\n        /* \"#utility.yul\":2188:2214   */\n      swap1\n      pop\n        /* \"#utility.yul\":2260:2269   */\n      dup2\n        /* \"#utility.yul\":2254:2258   */\n      dup2\n        /* \"#utility.yul\":2250:2270   */\n      sub\n        /* \"#utility.yul\":2246:2247   */\n      0x00\n        /* \"#utility.yul\":2235:2244   */\n      dup4\n        /* \"#utility.yul\":2231:2248   */\n      add\n        /* \"#utility.yul\":2224:2271   */\n      mstore\n        /* \"#utility.yul\":2288:2396   */\n      tag_72\n        /* \"#utility.yul\":2391:2395   */\n      dup2\n        /* \"#utility.yul\":2382:2388   */\n      dup5\n        /* \"#utility.yul\":2288:2396   */\n      tag_51\n      jump\t// in\n    tag_72:\n        /* \"#utility.yul\":2280:2396   */\n      swap1\n      pop\n        /* \"#utility.yul\":2030:2403   */\n      swap3\n      swap2\n      pop\n      pop\n      jump\t// out\n        /* \"#utility.yul\":2409:2741   */\n    tag_28:\n        /* \"#utility.yul\":2530:2534   */\n      0x00\n        /* \"#utility.yul\":2568:2570   */\n      0x40\n        /* \"#utility.yul\":2557:2566   */\n      dup3\n        /* \"#utility.yul\":2553:2571   */\n      add\n        /* \"#utility.yul\":2545:2571   */\n      swap1\n      pop\n        /* \"#utility.yul\":2581:2652   */\n      tag_74\n        /* \"#utility.yul\":2649:2650   */\n      0x00\n        /* \"#utility.yul\":2638:2647   */\n      dup4\n        /* \"#utility.yul\":2634:2651   */\n      add\n        /* \"#utility.yul\":2625:2631   */\n      dup6\n        /* \"#utility.yul\":2581:2652   */\n      tag_65\n      jump\t// in\n    tag_74:\n        /* \"#utility.yul\":2662:2734   */\n      tag_75\n        /* \"#utility.yul\":2730:2732   */\n      0x20\n        /* \"#utility.yul\":2719:2728   */\n      dup4\n        /* \"#utility.yul\":2715:2733   */\n      add\n        /* \"#utility.yul\":2706:2712   */\n      dup5\n        /* \"#utility.yul\":2662:2734   */\n      tag_48\n      jump\t// in\n    tag_75:\n        /* \"#utility.yul\":2409:2741   */\n      swap4\n      swap3\n      pop\n      pop\n      pop\n      jump\t// out\n        /* \"#utility.yul\":2828:2960   */\n    tag_58:\n        /* \"#utility.yul\":2895:2899   */\n      0x00\n        /* \"#utility.yul\":2918:2921   */\n      dup2\n        /* \"#utility.yul\":2910:2921   */\n      swap1\n      pop\n        /* \"#utility.yul\":2948:2952   */\n      0x20\n        /* \"#utility.yul\":2943:2946   */\n      dup3\n        /* \"#utility.yul\":2939:2953   */\n      add\n        /* \"#utility.yul\":2931:2953   */\n      swap1\n      pop\n        /* \"#utility.yul\":2828:2960   */\n      swap2\n      swap1\n      pop\n      jump\t// out\n        /* \"#utility.yul\":2966:3080   */\n    tag_54:\n        /* \"#utility.yul\":3033:3039   */\n      0x00\n        /* \"#utility.yul\":3067:3072   */\n      dup2\n        /* \"#utility.yul\":3061:3073   */\n      mload\n        /* \"#utility.yul\":3051:3073   */\n      swap1\n      pop\n        /* \"#utility.yul\":2966:3080   */\n      swap2\n      swap1\n      pop\n      jump\t// out\n        /* \"#utility.yul\":3086:3199   */\n    tag_64:\n        /* \"#utility.yul\":3156:3160   */\n      0x00\n        /* \"#utility.yul\":3188:3192   */\n      0x20\n        /* \"#utility.yul\":3183:3186   */\n      dup3\n        /* \"#utility.yul\":3179:3193   */\n      add\n        /* \"#utility.yul\":3171:3193   */\n      swap1\n      pop\n        /* \"#utility.yul\":3086:3199   */\n      swap2\n      swap1\n      pop\n      jump\t// out\n        /* \"#utility.yul\":3205:3389   */\n    tag_56:\n        /* \"#utility.yul\":3304:3315   */\n      0x00\n        /* \"#utility.yul\":3338:3344   */\n      dup3\n        /* \"#utility.yul\":3333:3336   */\n      dup3\n        /* \"#utility.yul\":3326:3345   */\n      mstore\n        /* \"#utility.yul\":3378:3382   */\n      0x20\n        /* \"#utility.yul\":3373:3376   */\n      dup3\n        /* \"#utility.yul\":3369:3383   */\n      add\n        /* \"#utility.yul\":3354:3383   */\n      swap1\n      pop\n        /* \"#utility.yul\":3205:3389   */\n      swap3\n      swap2\n      pop\n      pop\n      jump\t// out\n        /* \"#utility.yul\":3395:3491   */\n    tag_47:\n        /* \"#utility.yul\":3432:3439   */\n      0x00\n        /* \"#utility.yul\":3461:3485   */\n      tag_83\n        /* \"#utility.yul\":3479:3484   */\n      dup3\n        /* \"#utility.yul\":3461:3485   */\n      tag_84\n      jump\t// in\n    tag_83:\n        /* \"#utility.yul\":3450:3485   */\n      swap1\n      pop\n        /* \"#utility.yul\":3395:3491   */\n      swap2\n      swap1\n      pop\n      jump\t// out\n        /* \"#utility.yul\":3497:3623   */\n    tag_84:\n        /* \"#utility.yul\":3534:3541   */\n      0x00\n        /* \"#utility.yul\":3574:3616   */\n      0xffffffffffffffffffffffffffffffffffffffff\n        /* \"#utility.yul\":3567:3572   */\n      dup3\n        /* \"#utility.yul\":3563:3617   */\n      and\n        /* \"#utility.yul\":3552:3617   */\n      swap1\n      pop\n        /* \"#utility.yul\":3497:3623   */\n      swap2\n      swap1\n      pop\n      jump\t// out\n        /* \"#utility.yul\":3629:3706   */\n    tag_68:\n        /* \"#utility.yul\":3666:3673   */\n      0x00\n        /* \"#utility.yul\":3695:3700   */\n      dup2\n        /* \"#utility.yul\":3684:3700   */\n      swap1\n      pop\n        /* \"#utility.yul\":3629:3706   */\n      swap2\n      swap1\n      pop\n      jump\t// out\n        /* \"#utility.yul\":3835:3952   */\n    tag_39:\n        /* \"#utility.yul\":3944:3945   */\n      0x00\n        /* \"#utility.yul\":3941:3942   */\n      dup1\n        /* \"#utility.yul\":3934:3946   */\n      revert\n        /* \"#utility.yul\":3958:4080   */\n    tag_35:\n        /* \"#utility.yul\":4031:4055   */\n      tag_91\n        /* \"#utility.yul\":4049:4054   */\n      dup2\n        /* \"#utility.yul\":4031:4055   */\n      tag_68\n      jump\t// in\n    tag_91:\n        /* \"#utility.yul\":4024:4029   */\n      dup2\n        /* \"#utility.yul\":4021:4056   */\n      eq\n        /* \"#utility.yul\":4011:4074   */\n      tag_92\n      jumpi\n        /* \"#utility.yul\":4070:4071   */\n      0x00\n        /* \"#utility.yul\":4067:4068   */\n      dup1\n        /* \"#utility.yul\":4060:4072   */\n      revert\n        /* \"#utility.yul\":4011:4074   */\n    tag_92:\n        /* \"#utility.yul\":3958:4080   */\n      pop\n      jump\t// out\n    stop\n\n    sub_0: assembly {\n            /* \"Campaign.sol\":402:2828  contract Campaign {... */\n          mstore(0x40, 0x80)\n            /* \"Campaign.sol\":986:1105  constructor(uint256 minimum, address creator) {... */\n          callvalue\n          dup1\n          iszero\n          tag_1\n          jumpi\n          0x00\n          dup1\n          revert\n        tag_1:\n          pop\n          mload(0x40)\n          sub(codesize, bytecodeSize)\n          dup1\n          bytecodeSize\n          dup4\n          codecopy\n          dup2\n          dup2\n          add\n          0x40\n          mstore\n          dup2\n          add\n          swap1\n          tag_2\n          swap2\n          swap1\n          tag_3\n          jump\t// in\n        tag_2:\n            /* \"Campaign.sol\":1052:1059  creator */\n          dup1\n            /* \"Campaign.sol\":1042:1049  manager */\n          0x02\n          0x00\n            /* \"Campaign.sol\":1042:1059  manager = creator */\n          0x0100\n          exp\n          dup2\n          sload\n          dup2\n          0xffffffffffffffffffffffffffffffffffffffff\n          mul\n          not\n          and\n          swap1\n          dup4\n          0xffffffffffffffffffffffffffffffffffffffff\n          and\n          mul\n          or\n          swap1\n          sstore\n          pop\n            /* \"Campaign.sol\":1091:1098  minimum */\n          dup2\n            /* \"Campaign.sol\":1069:1088  minimumContribution */\n          0x03\n            /* \"Campaign.sol\":1069:1098  minimumContribution = minimum */\n          dup2\n          swap1\n          sstore\n          pop\n            /* \"Campaign.sol\":986:1105  constructor(uint256 minimum, address creator) {... */\n          pop\n          pop\n            /* \"Campaign.sol\":402:2828  contract Campaign {... */\n          jump(tag_6)\n            /* \"#utility.yul\":7:150   */\n        tag_8:\n            /* \"#utility.yul\":64:69   */\n          0x00\n            /* \"#utility.yul\":95:101   */\n          dup2\n            /* \"#utility.yul\":89:102   */\n          mload\n            /* \"#utility.yul\":80:102   */\n          swap1\n          pop\n            /* \"#utility.yul\":111:144   */\n          tag_10\n            /* \"#utility.yul\":138:143   */\n          dup2\n            /* \"#utility.yul\":111:144   */\n          tag_11\n          jump\t// in\n        tag_10:\n            /* \"#utility.yul\":7:150   */\n          swap3\n          swap2\n          pop\n          pop\n          jump\t// out\n            /* \"#utility.yul\":156:299   */\n        tag_12:\n            /* \"#utility.yul\":213:218   */\n          0x00\n            /* \"#utility.yul\":244:250   */\n          dup2\n            /* \"#utility.yul\":238:251   */\n          mload\n            /* \"#utility.yul\":229:251   */\n          swap1\n          pop\n            /* \"#utility.yul\":260:293   */\n          tag_14\n            /* \"#utility.yul\":287:292   */\n          dup2\n            /* \"#utility.yul\":260:293   */\n          tag_15\n          jump\t// in\n        tag_14:\n            /* \"#utility.yul\":156:299   */\n          swap3\n          swap2\n          pop\n          pop\n          jump\t// out\n            /* \"#utility.yul\":305:812   */\n        tag_3:\n            /* \"#utility.yul\":384:390   */\n          0x00\n            /* \"#utility.yul\":392:398   */\n          dup1\n            /* \"#utility.yul\":441:443   */\n          0x40\n            /* \"#utility.yul\":429:438   */\n          dup4\n            /* \"#utility.yul\":420:427   */\n          dup6\n            /* \"#utility.yul\":416:439   */\n          sub\n            /* \"#utility.yul\":412:444   */\n          slt\n            /* \"#utility.yul\":409:528   */\n          iszero\n          tag_17\n          jumpi\n            /* \"#utility.yul\":447:526   */\n          tag_18\n          tag_19\n          jump\t// in\n        tag_18:\n            /* \"#utility.yul\":409:528   */\n        tag_17:\n            /* \"#utility.yul\":567:568   */\n          0x00\n            /* \"#utility.yul\":592:656   */\n          tag_20\n            /* \"#utility.yul\":648:655   */\n          dup6\n            /* \"#utility.yul\":639:645   */\n          dup3\n            /* \"#utility.yul\":628:637   */\n          dup7\n            /* \"#utility.yul\":624:646   */\n          add\n            /* \"#utility.yul\":592:656   */\n          tag_12\n          jump\t// in\n        tag_20:\n            /* \"#utility.yul\":582:656   */\n          swap3\n          pop\n            /* \"#utility.yul\":538:666   */\n          pop\n            /* \"#utility.yul\":705:707   */\n          0x20\n            /* \"#utility.yul\":731:795   */\n          tag_21\n            /* \"#utility.yul\":787:794   */\n          dup6\n            /* \"#utility.yul\":778:784   */\n          dup3\n            /* \"#utility.yul\":767:776   */\n          dup7\n            /* \"#utility.yul\":763:785   */\n          add\n            /* \"#utility.yul\":731:795   */\n          tag_8\n          jump\t// in\n        tag_21:\n            /* \"#utility.yul\":721:795   */\n          swap2\n          pop\n            /* \"#utility.yul\":676:805   */\n          pop\n            /* \"#utility.yul\":305:812   */\n          swap3\n          pop\n          swap3\n          swap1\n          pop\n          jump\t// out\n            /* \"#utility.yul\":899:995   */\n        tag_24:\n            /* \"#utility.yul\":936:943   */\n          0x00\n            /* \"#utility.yul\":965:989   */\n          tag_26\n            /* \"#utility.yul\":983:988   */\n          dup3\n            /* \"#utility.yul\":965:989   */\n          tag_27\n          jump\t// in\n        tag_26:\n            /* \"#utility.yul\":954:989   */\n          swap1\n          pop\n            /* \"#utility.yul\":899:995   */\n          swap2\n          swap1\n          pop\n          jump\t// out\n            /* \"#utility.yul\":1001:1127   */\n        tag_27:\n            /* \"#utility.yul\":1038:1045   */\n          0x00\n            /* \"#utility.yul\":1078:1120   */\n          0xffffffffffffffffffffffffffffffffffffffff\n            /* \"#utility.yul\":1071:1076   */\n          dup3\n            /* \"#utility.yul\":1067:1121   */\n          and\n            /* \"#utility.yul\":1056:1121   */\n          swap1\n          pop\n            /* \"#utility.yul\":1001:1127   */\n          swap2\n          swap1\n          pop\n          jump\t// out\n            /* \"#utility.yul\":1133:1210   */\n        tag_29:\n            /* \"#utility.yul\":1170:1177   */\n          0x00\n            /* \"#utility.yul\":1199:1204   */\n          dup2\n            /* \"#utility.yul\":1188:1204   */\n          swap1\n          pop\n            /* \"#utility.yul\":1133:1210   */\n          swap2\n          swap1\n          pop\n          jump\t// out\n            /* \"#utility.yul\":1339:1456   */\n        tag_19:\n            /* \"#utility.yul\":1448:1449   */\n          0x00\n            /* \"#utility.yul\":1445:1446   */\n          dup1\n            /* \"#utility.yul\":1438:1450   */\n          revert\n            /* \"#utility.yul\":1462:1584   */\n        tag_11:\n            /* \"#utility.yul\":1535:1559   */\n          tag_35\n            /* \"#utility.yul\":1553:1558   */\n          dup2\n            /* \"#utility.yul\":1535:1559   */\n          tag_24\n          jump\t// in\n        tag_35:\n            /* \"#utility.yul\":1528:1533   */\n          dup2\n            /* \"#utility.yul\":1525:1560   */\n          eq\n            /* \"#utility.yul\":1515:1578   */\n          tag_36\n          jumpi\n            /* \"#utility.yul\":1574:1575   */\n          0x00\n            /* \"#utility.yul\":1571:1572   */\n          dup1\n            /* \"#utility.yul\":1564:1576   */\n          revert\n            /* \"#utility.yul\":1515:1578   */\n        tag_36:\n            /* \"#utility.yul\":1462:1584   */\n          pop\n          jump\t// out\n            /* \"#utility.yul\":1590:1712   */\n        tag_15:\n            /* \"#utility.yul\":1663:1687   */\n          tag_38\n            /* \"#utility.yul\":1681:1686   */\n          dup2\n            /* \"#utility.yul\":1663:1687   */\n          tag_29\n          jump\t// in\n        tag_38:\n            /* \"#utility.yul\":1656:1661   */\n          dup2\n            /* \"#utility.yul\":1653:1688   */\n          eq\n            /* \"#utility.yul\":1643:1706   */\n          tag_39\n          jumpi\n            /* \"#utility.yul\":1702:1703   */\n          0x00\n            /* \"#utility.yul\":1699:1700   */\n          dup1\n            /* \"#utility.yul\":1692:1704   */\n          revert\n            /* \"#utility.yul\":1643:1706   */\n        tag_39:\n            /* \"#utility.yul\":1590:1712   */\n          pop\n          jump\t// out\n            /* \"Campaign.sol\":402:2828  contract Campaign {... */\n        tag_6:\n          dataSize(sub_0)\n          dup1\n          dataOffset(sub_0)\n          0x00\n          codecopy\n          0x00\n          return\n        stop\n\n        sub_0: assembly {\n                /* \"Campaign.sol\":402:2828  contract Campaign {... */\n              mstore(0x40, 0x80)\n              jumpi(tag_1, lt(calldatasize, 0x04))\n              shr(0xe0, calldataload(0x00))\n              dup1\n              0x82fde093\n              gt\n              tag_13\n              jumpi\n              dup1\n              0x82fde093\n              eq\n              tag_7\n              jumpi\n              dup1\n              0x8a9cfd55\n              eq\n              tag_8\n              jumpi\n              dup1\n              0x937e09b1\n              eq\n              tag_9\n              jumpi\n              dup1\n              0xd7bb99ba\n              eq\n              tag_10\n              jumpi\n              dup1\n              0xd7d1bbdb\n              eq\n              tag_11\n              jumpi\n              dup1\n              0xfbfa4b7f\n              eq\n              tag_12\n              jumpi\n              jump(tag_1)\n            tag_13:\n              dup1\n              0x03441006\n              eq\n              tag_2\n              jumpi\n              dup1\n              0x0a144391\n              eq\n              tag_3\n              jumpi\n              dup1\n              0x4051ddac\n              eq\n              tag_4\n              jumpi\n              dup1\n              0x481c6a75\n              eq\n              tag_5\n              jumpi\n              dup1\n              0x81d12c58\n              eq\n              tag_6\n              jumpi\n            tag_1:\n              0x00\n              dup1\n              revert\n                /* \"Campaign.sol\":2145:2456  function finalizeRequest(uint256 index) public restricted {... */\n            tag_2:\n              callvalue\n              dup1\n              iszero\n              tag_14\n              jumpi\n              0x00\n              dup1\n              revert\n            tag_14:\n              pop\n              tag_15\n              0x04\n              dup1\n              calldatasize\n              sub\n              dup2\n              add\n              swap1\n              tag_16\n              swap2\n              swap1\n              tag_17\n              jump\t// in\n            tag_16:\n              tag_18\n              jump\t// in\n            tag_15:\n              stop\n                /* \"Campaign.sol\":817:858  mapping(address => bool) public approvers */\n            tag_3:\n              callvalue\n              dup1\n              iszero\n              tag_19\n              jumpi\n              0x00\n              dup1\n              revert\n            tag_19:\n              pop\n              tag_20\n              0x04\n              dup1\n              calldatasize\n              sub\n              dup2\n              add\n              swap1\n              tag_21\n              swap2\n              swap1\n              tag_22\n              jump\t// in\n            tag_21:\n              tag_23\n              jump\t// in\n            tag_20:\n              mload(0x40)\n              tag_24\n              swap2\n              swap1\n              tag_25\n              jump\t// in\n            tag_24:\n              mload(0x40)\n              dup1\n              swap2\n              sub\n              swap1\n              return\n                /* \"Campaign.sol\":2462:2826  function getSummary()... */\n            tag_4:\n              callvalue\n              dup1\n              iszero\n              tag_26\n              jumpi\n              0x00\n              dup1\n              revert\n            tag_26:\n              pop\n              tag_27\n              tag_28\n              jump\t// in\n            tag_27:\n              mload(0x40)\n              tag_29\n              swap6\n              swap5\n              swap4\n              swap3\n              swap2\n              swap1\n              tag_30\n              jump\t// in\n            tag_29:\n              mload(0x40)\n              dup1\n              swap2\n              sub\n              swap1\n              return\n                /* \"Campaign.sol\":749:771  address public manager */\n            tag_5:\n              callvalue\n              dup1\n              iszero\n              tag_31\n              jumpi\n              0x00\n              dup1\n              revert\n            tag_31:\n              pop\n              tag_32\n              tag_33\n              jump\t// in\n            tag_32:\n              mload(0x40)\n              tag_34\n              swap2\n              swap1\n              tag_35\n              jump\t// in\n            tag_34:\n              mload(0x40)\n              dup1\n              swap2\n              sub\n              swap1\n              return\n                /* \"Campaign.sol\":699:742  mapping(uint256 => Request) public requests */\n            tag_6:\n              callvalue\n              dup1\n              iszero\n              tag_36\n              jumpi\n              0x00\n              dup1\n              revert\n            tag_36:\n              pop\n              tag_37\n              0x04\n              dup1\n              calldatasize\n              sub\n              dup2\n              add\n              swap1\n              tag_38\n              swap2\n              swap1\n              tag_17\n              jump\t// in\n            tag_38:\n              tag_39\n              jump\t// in\n            tag_37:\n              mload(0x40)\n              tag_40\n              swap6\n              swap5\n              swap4\n              swap3\n              swap2\n              swap1\n              tag_41\n              jump\t// in\n            tag_40:\n              mload(0x40)\n              dup1\n              swap2\n              sub\n              swap1\n              return\n                /* \"Campaign.sol\":864:893  uint256 public approversCount */\n            tag_7:\n              callvalue\n              dup1\n              iszero\n              tag_42\n              jumpi\n              0x00\n              dup1\n              revert\n            tag_42:\n              pop\n              tag_43\n              tag_44\n              jump\t// in\n            tag_43:\n              mload(0x40)\n              tag_45\n              swap2\n              swap1\n              tag_46\n              jump\t// in\n            tag_45:\n              mload(0x40)\n              dup1\n              swap2\n              sub\n              swap1\n              return\n                /* \"Campaign.sol\":1276:1860  function createRequest(... */\n            tag_8:\n              callvalue\n              dup1\n              iszero\n              tag_47\n              jumpi\n              0x00\n              dup1\n              revert\n            tag_47:\n              pop\n              tag_48\n              0x04\n              dup1\n              calldatasize\n              sub\n              dup2\n              add\n              swap1\n              tag_49\n              swap2\n              swap1\n              tag_50\n              jump\t// in\n            tag_49:\n              tag_51\n              jump\t// in\n            tag_48:\n              stop\n                /* \"Campaign.sol\":777:811  uint256 public minimumContribution */\n            tag_9:\n              callvalue\n              dup1\n              iszero\n              tag_52\n              jumpi\n              0x00\n              dup1\n              revert\n            tag_52:\n              pop\n              tag_53\n              tag_54\n              jump\t// in\n            tag_53:\n              mload(0x40)\n              tag_55\n              swap2\n              swap1\n              tag_46\n              jump\t// in\n            tag_55:\n              mload(0x40)\n              dup1\n              swap2\n              sub\n              swap1\n              return\n                /* \"Campaign.sol\":1111:1270  function contribute() public payable {... */\n            tag_10:\n              tag_56\n              tag_57\n              jump\t// in\n            tag_56:\n              stop\n                /* \"Campaign.sol\":1866:2139  function approveRequest(uint256 index) public {... */\n            tag_11:\n              callvalue\n              dup1\n              iszero\n              tag_58\n              jumpi\n              0x00\n              dup1\n              revert\n            tag_58:\n              pop\n              tag_59\n              0x04\n              dup1\n              calldatasize\n              sub\n              dup2\n              add\n              swap1\n              tag_60\n              swap2\n              swap1\n              tag_17\n              jump\t// in\n            tag_60:\n              tag_61\n              jump\t// in\n            tag_59:\n              stop\n                /* \"Campaign.sol\":665:693  uint256 public requestsCount */\n            tag_12:\n              callvalue\n              dup1\n              iszero\n              tag_62\n              jumpi\n              0x00\n              dup1\n              revert\n            tag_62:\n              pop\n              tag_63\n              tag_64\n              jump\t// in\n            tag_63:\n              mload(0x40)\n              tag_65\n              swap2\n              swap1\n              tag_46\n              jump\t// in\n            tag_65:\n              mload(0x40)\n              dup1\n              swap2\n              sub\n              swap1\n              return\n                /* \"Campaign.sol\":2145:2456  function finalizeRequest(uint256 index) public restricted {... */\n            tag_18:\n                /* \"Campaign.sol\":954:961  manager */\n              0x02\n              0x00\n              swap1\n              sload\n              swap1\n              0x0100\n              exp\n              swap1\n              div\n              0xffffffffffffffffffffffffffffffffffffffff\n              and\n                /* \"Campaign.sol\":940:961  msg.sender == manager */\n              0xffffffffffffffffffffffffffffffffffffffff\n              and\n                /* \"Campaign.sol\":940:950  msg.sender */\n              caller\n                /* \"Campaign.sol\":940:961  msg.sender == manager */\n              0xffffffffffffffffffffffffffffffffffffffff\n              and\n              eq\n                /* \"Campaign.sol\":932:962  require(msg.sender == manager) */\n              tag_67\n              jumpi\n              0x00\n              dup1\n              revert\n            tag_67:\n                /* \"Campaign.sol\":2213:2236  Request storage request */\n              0x00\n                /* \"Campaign.sol\":2239:2247  requests */\n              0x01\n                /* \"Campaign.sol\":2239:2254  requests[index] */\n              0x00\n                /* \"Campaign.sol\":2248:2253  index */\n              dup4\n                /* \"Campaign.sol\":2239:2254  requests[index] */\n              dup2\n              mstore\n              0x20\n              add\n              swap1\n              dup2\n              mstore\n              0x20\n              add\n              0x00\n              keccak256\n                /* \"Campaign.sol\":2213:2254  Request storage request = requests[index] */\n              swap1\n              pop\n                /* \"Campaign.sol\":2315:2316  2 */\n              0x02\n                /* \"Campaign.sol\":2298:2312  approversCount */\n              sload(0x05)\n                /* \"Campaign.sol\":2298:2316  approversCount / 2 */\n              tag_69\n              swap2\n              swap1\n              tag_70\n              jump\t// in\n            tag_69:\n                /* \"Campaign.sol\":2273:2280  request */\n              dup2\n                /* \"Campaign.sol\":2273:2294  request.approvalCount */\n              0x03\n              add\n              sload\n                /* \"Campaign.sol\":2273:2317  request.approvalCount > (approversCount / 2) */\n              gt\n                /* \"Campaign.sol\":2265:2318  require(request.approvalCount > (approversCount / 2)) */\n              tag_71\n              jumpi\n              0x00\n              dup1\n              revert\n            tag_71:\n                /* \"Campaign.sol\":2337:2344  request */\n              dup1\n                /* \"Campaign.sol\":2337:2353  request.complete */\n              0x02\n              add\n              0x14\n              swap1\n              sload\n              swap1\n              0x0100\n              exp\n              swap1\n              div\n              0xff\n              and\n                /* \"Campaign.sol\":2336:2353  !request.complete */\n              iszero\n                /* \"Campaign.sol\":2328:2354  require(!request.complete) */\n              tag_72\n              jumpi\n              0x00\n              dup1\n              revert\n            tag_72:\n                /* \"Campaign.sol\":2373:2380  request */\n              dup1\n                /* \"Campaign.sol\":2373:2390  request.recipient */\n              0x02\n              add\n              0x00\n              swap1\n              sload\n              swap1\n              0x0100\n              exp\n              swap1\n              div\n              0xffffffffffffffffffffffffffffffffffffffff\n              and\n                /* \"Campaign.sol\":2365:2400  payable(request.recipient).transfer */\n              0xffffffffffffffffffffffffffffffffffffffff\n              and\n                /* \"Campaign.sol\":2365:2415  payable(request.recipient).transfer(request.value) */\n              0x08fc\n                /* \"Campaign.sol\":2401:2408  request */\n              dup3\n                /* \"Campaign.sol\":2401:2414  request.value */\n              0x01\n              add\n              sload\n                /* \"Campaign.sol\":2365:2415  payable(request.recipient).transfer(request.value) */\n              swap1\n              dup2\n              iszero\n              mul\n              swap1\n              mload(0x40)\n              0x00\n              mload(0x40)\n              dup1\n              dup4\n              sub\n              dup2\n              dup6\n              dup9\n              dup9\n              call\n              swap4\n              pop\n              pop\n              pop\n              pop\n              iszero\n              dup1\n              iszero\n              tag_74\n              jumpi\n              returndatasize\n              0x00\n              dup1\n              returndatacopy\n              revert(0x00, returndatasize)\n            tag_74:\n              pop\n                /* \"Campaign.sol\":2445:2449  true */\n              0x01\n                /* \"Campaign.sol\":2426:2433  request */\n              dup2\n                /* \"Campaign.sol\":2426:2442  request.complete */\n              0x02\n              add\n              0x14\n                /* \"Campaign.sol\":2426:2449  request.complete = true */\n              0x0100\n              exp\n              dup2\n              sload\n              dup2\n              0xff\n              mul\n              not\n              and\n              swap1\n              dup4\n              iszero\n              iszero\n              mul\n              or\n              swap1\n              sstore\n              pop\n                /* \"Campaign.sol\":2203:2456  {... */\n              pop\n                /* \"Campaign.sol\":2145:2456  function finalizeRequest(uint256 index) public restricted {... */\n              pop\n              jump\t// out\n                /* \"Campaign.sol\":817:858  mapping(address => bool) public approvers */\n            tag_23:\n              mstore(0x20, 0x04)\n              dup1\n              0x00\n              mstore\n              keccak256(0x00, 0x40)\n              0x00\n              swap2\n              pop\n              sload\n              swap1\n              0x0100\n              exp\n              swap1\n              div\n              0xff\n              and\n              dup2\n              jump\t// out\n                /* \"Campaign.sol\":2462:2826  function getSummary()... */\n            tag_28:\n                /* \"Campaign.sol\":2542:2549  uint256 */\n              0x00\n                /* \"Campaign.sol\":2563:2570  uint256 */\n              dup1\n                /* \"Campaign.sol\":2584:2591  uint256 */\n              0x00\n                /* \"Campaign.sol\":2605:2612  uint256 */\n              dup1\n                /* \"Campaign.sol\":2626:2633  address */\n              0x00\n                /* \"Campaign.sol\":2679:2698  minimumContribution */\n              sload(0x03)\n                /* \"Campaign.sol\":2712:2733  address(this).balance */\n              selfbalance\n                /* \"Campaign.sol\":2747:2760  requestsCount */\n              sload(0x00)\n                /* \"Campaign.sol\":2774:2788  approversCount */\n              sload(0x05)\n                /* \"Campaign.sol\":2802:2809  manager */\n              0x02\n              0x00\n              swap1\n              sload\n              swap1\n              0x0100\n              exp\n              swap1\n              div\n              0xffffffffffffffffffffffffffffffffffffffff\n              and\n                /* \"Campaign.sol\":2658:2819  return (... */\n              swap5\n              pop\n              swap5\n              pop\n              swap5\n              pop\n              swap5\n              pop\n              swap5\n              pop\n                /* \"Campaign.sol\":2462:2826  function getSummary()... */\n              swap1\n              swap2\n              swap3\n              swap4\n              swap5\n              jump\t// out\n                /* \"Campaign.sol\":749:771  address public manager */\n            tag_33:\n              0x02\n              0x00\n              swap1\n              sload\n              swap1\n              0x0100\n              exp\n              swap1\n              div\n              0xffffffffffffffffffffffffffffffffffffffff\n              and\n              dup2\n              jump\t// out\n                /* \"Campaign.sol\":699:742  mapping(uint256 => Request) public requests */\n            tag_39:\n              mstore(0x20, 0x01)\n              dup1\n              0x00\n              mstore\n              keccak256(0x00, 0x40)\n              0x00\n              swap2\n              pop\n              swap1\n              pop\n              dup1\n              0x00\n              add\n              dup1\n              sload\n              tag_76\n              swap1\n              tag_77\n              jump\t// in\n            tag_76:\n              dup1\n              0x1f\n              add\n              0x20\n              dup1\n              swap2\n              div\n              mul\n              0x20\n              add\n              mload(0x40)\n              swap1\n              dup2\n              add\n              0x40\n              mstore\n              dup1\n              swap3\n              swap2\n              swap1\n              dup2\n              dup2\n              mstore\n              0x20\n              add\n              dup3\n              dup1\n              sload\n              tag_78\n              swap1\n              tag_77\n              jump\t// in\n            tag_78:\n              dup1\n              iszero\n              tag_79\n              jumpi\n              dup1\n              0x1f\n              lt\n              tag_80\n              jumpi\n              0x0100\n              dup1\n              dup4\n              sload\n              div\n              mul\n              dup4\n              mstore\n              swap2\n              0x20\n              add\n              swap2\n              jump(tag_79)\n            tag_80:\n              dup3\n              add\n              swap2\n              swap1\n              0x00\n              mstore\n              keccak256(0x00, 0x20)\n              swap1\n            tag_81:\n              dup2\n              sload\n              dup2\n              mstore\n              swap1\n              0x01\n              add\n              swap1\n              0x20\n              add\n              dup1\n              dup4\n              gt\n              tag_81\n              jumpi\n              dup3\n              swap1\n              sub\n              0x1f\n              and\n              dup3\n              add\n              swap2\n            tag_79:\n              pop\n              pop\n              pop\n              pop\n              pop\n              swap1\n              dup1\n              0x01\n              add\n              sload\n              swap1\n              dup1\n              0x02\n              add\n              0x00\n              swap1\n              sload\n              swap1\n              0x0100\n              exp\n              swap1\n              div\n              0xffffffffffffffffffffffffffffffffffffffff\n              and\n              swap1\n              dup1\n              0x02\n              add\n              0x14\n              swap1\n              sload\n              swap1\n              0x0100\n              exp\n              swap1\n              div\n              0xff\n              and\n              swap1\n              dup1\n              0x03\n              add\n              sload\n              swap1\n              pop\n              dup6\n              jump\t// out\n                /* \"Campaign.sol\":864:893  uint256 public approversCount */\n            tag_44:\n              sload(0x05)\n              dup2\n              jump\t// out\n                /* \"Campaign.sol\":1276:1860  function createRequest(... */\n            tag_51:\n                /* \"Campaign.sol\":954:961  manager */\n              0x02\n              0x00\n              swap1\n              sload\n              swap1\n              0x0100\n              exp\n              swap1\n              div\n              0xffffffffffffffffffffffffffffffffffffffff\n              and\n                /* \"Campaign.sol\":940:961  msg.sender == manager */\n              0xffffffffffffffffffffffffffffffffffffffff\n              and\n                /* \"Campaign.sol\":940:950  msg.sender */\n              caller\n                /* \"Campaign.sol\":940:961  msg.sender == manager */\n              0xffffffffffffffffffffffffffffffffffffffff\n              and\n              eq\n                /* \"Campaign.sol\":932:962  require(msg.sender == manager) */\n              tag_83\n              jumpi\n              0x00\n              dup1\n              revert\n            tag_83:\n                /* \"Campaign.sol\":1418:1435  Request storage r */\n              0x00\n                /* \"Campaign.sol\":1438:1446  requests */\n              0x01\n                /* \"Campaign.sol\":1438:1463  requests[requestsCount++] */\n              0x00\n                /* \"Campaign.sol\":1447:1460  requestsCount */\n              dup1\n              0x00\n                /* \"Campaign.sol\":1447:1462  requestsCount++ */\n              dup2\n              sload\n              dup1\n              swap3\n              swap2\n              swap1\n              tag_85\n              swap1\n              tag_86\n              jump\t// in\n            tag_85:\n              swap2\n              swap1\n              pop\n              sstore\n                /* \"Campaign.sol\":1438:1463  requests[requestsCount++] */\n              dup2\n              mstore\n              0x20\n              add\n              swap1\n              dup2\n              mstore\n              0x20\n              add\n              0x00\n              keccak256\n                /* \"Campaign.sol\":1418:1463  Request storage r = requests[requestsCount++] */\n              swap1\n              pop\n                /* \"Campaign.sol\":1489:1500  description */\n              dup4\n                /* \"Campaign.sol\":1473:1474  r */\n              dup2\n                /* \"Campaign.sol\":1473:1486  r.description */\n              0x00\n              add\n                /* \"Campaign.sol\":1473:1500  r.description = description */\n              swap1\n              dup1\n              mload\n              swap1\n              0x20\n              add\n              swap1\n              tag_87\n              swap3\n              swap2\n              swap1\n              tag_88\n              jump\t// in\n            tag_87:\n              pop\n                /* \"Campaign.sol\":1520:1525  value */\n              dup3\n                /* \"Campaign.sol\":1510:1511  r */\n              dup2\n                /* \"Campaign.sol\":1510:1517  r.value */\n              0x01\n              add\n                /* \"Campaign.sol\":1510:1525  r.value = value */\n              dup2\n              swap1\n              sstore\n              pop\n                /* \"Campaign.sol\":1549:1558  recipient */\n              dup2\n                /* \"Campaign.sol\":1535:1536  r */\n              dup2\n                /* \"Campaign.sol\":1535:1546  r.recipient */\n              0x02\n              add\n              0x00\n                /* \"Campaign.sol\":1535:1558  r.recipient = recipient */\n              0x0100\n              exp\n              dup2\n              sload\n              dup2\n              0xffffffffffffffffffffffffffffffffffffffff\n              mul\n              not\n              and\n              swap1\n              dup4\n              0xffffffffffffffffffffffffffffffffffffffff\n              and\n              mul\n              or\n              swap1\n              sstore\n              pop\n                /* \"Campaign.sol\":1581:1586  false */\n              0x00\n                /* \"Campaign.sol\":1568:1569  r */\n              dup2\n                /* \"Campaign.sol\":1568:1578  r.complete */\n              0x02\n              add\n              0x14\n                /* \"Campaign.sol\":1568:1586  r.complete = false */\n              0x0100\n              exp\n              dup2\n              sload\n              dup2\n              0xff\n              mul\n              not\n              and\n              swap1\n              dup4\n              iszero\n              iszero\n              mul\n              or\n              swap1\n              sstore\n              pop\n                /* \"Campaign.sol\":1614:1615  0 */\n              0x00\n                /* \"Campaign.sol\":1596:1597  r */\n              dup2\n                /* \"Campaign.sol\":1596:1611  r.approvalCount */\n              0x03\n              add\n                /* \"Campaign.sol\":1596:1615  r.approvalCount = 0 */\n              dup2\n              swap1\n              sstore\n              pop\n                /* \"Campaign.sol\":1408:1860  {... */\n              pop\n                /* \"Campaign.sol\":1276:1860  function createRequest(... */\n              pop\n              pop\n              pop\n              jump\t// out\n                /* \"Campaign.sol\":777:811  uint256 public minimumContribution */\n            tag_54:\n              sload(0x03)\n              dup2\n              jump\t// out\n                /* \"Campaign.sol\":1111:1270  function contribute() public payable {... */\n            tag_57:\n                /* \"Campaign.sol\":1178:1197  minimumContribution */\n              sload(0x03)\n                /* \"Campaign.sol\":1166:1175  msg.value */\n              callvalue\n                /* \"Campaign.sol\":1166:1197  msg.value > minimumContribution */\n              gt\n                /* \"Campaign.sol\":1158:1198  require(msg.value > minimumContribution) */\n              tag_90\n              jumpi\n              0x00\n              dup1\n              revert\n            tag_90:\n                /* \"Campaign.sol\":1233:1237  true */\n              0x01\n                /* \"Campaign.sol\":1209:1218  approvers */\n              0x04\n                /* \"Campaign.sol\":1209:1230  approvers[msg.sender] */\n              0x00\n                /* \"Campaign.sol\":1219:1229  msg.sender */\n              caller\n                /* \"Campaign.sol\":1209:1230  approvers[msg.sender] */\n              0xffffffffffffffffffffffffffffffffffffffff\n              and\n              0xffffffffffffffffffffffffffffffffffffffff\n              and\n              dup2\n              mstore\n              0x20\n              add\n              swap1\n              dup2\n              mstore\n              0x20\n              add\n              0x00\n              keccak256\n              0x00\n                /* \"Campaign.sol\":1209:1237  approvers[msg.sender] = true */\n              0x0100\n              exp\n              dup2\n              sload\n              dup2\n              0xff\n              mul\n              not\n              and\n              swap1\n              dup4\n              iszero\n              iszero\n              mul\n              or\n              swap1\n              sstore\n              pop\n                /* \"Campaign.sol\":1247:1261  approversCount */\n              0x05\n              0x00\n                /* \"Campaign.sol\":1247:1263  approversCount++ */\n              dup2\n              sload\n              dup1\n              swap3\n              swap2\n              swap1\n              tag_91\n              swap1\n              tag_86\n              jump\t// in\n            tag_91:\n              swap2\n              swap1\n              pop\n              sstore\n              pop\n                /* \"Campaign.sol\":1111:1270  function contribute() public payable {... */\n              jump\t// out\n                /* \"Campaign.sol\":1866:2139  function approveRequest(uint256 index) public {... */\n            tag_61:\n                /* \"Campaign.sol\":1930:1939  approvers */\n              0x04\n                /* \"Campaign.sol\":1930:1951  approvers[msg.sender] */\n              0x00\n                /* \"Campaign.sol\":1940:1950  msg.sender */\n              caller\n                /* \"Campaign.sol\":1930:1951  approvers[msg.sender] */\n              0xffffffffffffffffffffffffffffffffffffffff\n              and\n              0xffffffffffffffffffffffffffffffffffffffff\n              and\n              dup2\n              mstore\n              0x20\n              add\n              swap1\n              dup2\n              mstore\n              0x20\n              add\n              0x00\n              keccak256\n              0x00\n              swap1\n              sload\n              swap1\n              0x0100\n              exp\n              swap1\n              div\n              0xff\n              and\n                /* \"Campaign.sol\":1922:1952  require(approvers[msg.sender]) */\n              tag_93\n              jumpi\n              0x00\n              dup1\n              revert\n            tag_93:\n                /* \"Campaign.sol\":1962:1985  Request storage request */\n              0x00\n                /* \"Campaign.sol\":1988:1996  requests */\n              0x01\n                /* \"Campaign.sol\":1988:2003  requests[index] */\n              0x00\n                /* \"Campaign.sol\":1997:2002  index */\n              dup4\n                /* \"Campaign.sol\":1988:2003  requests[index] */\n              dup2\n              mstore\n              0x20\n              add\n              swap1\n              dup2\n              mstore\n              0x20\n              add\n              0x00\n              keccak256\n                /* \"Campaign.sol\":1962:2003  Request storage request = requests[index] */\n              swap1\n              pop\n                /* \"Campaign.sol\":2022:2029  request */\n              dup1\n                /* \"Campaign.sol\":2022:2039  request.approvals */\n              0x04\n              add\n                /* \"Campaign.sol\":2022:2051  request.approvals[msg.sender] */\n              0x00\n                /* \"Campaign.sol\":2040:2050  msg.sender */\n              caller\n                /* \"Campaign.sol\":2022:2051  request.approvals[msg.sender] */\n              0xffffffffffffffffffffffffffffffffffffffff\n              and\n              0xffffffffffffffffffffffffffffffffffffffff\n              and\n              dup2\n              mstore\n              0x20\n              add\n              swap1\n              dup2\n              mstore\n              0x20\n              add\n              0x00\n              keccak256\n              0x00\n              swap1\n              sload\n              swap1\n              0x0100\n              exp\n              swap1\n              div\n              0xff\n              and\n                /* \"Campaign.sol\":2021:2051  !request.approvals[msg.sender] */\n              iszero\n                /* \"Campaign.sol\":2013:2052  require(!request.approvals[msg.sender]) */\n              tag_94\n              jumpi\n              0x00\n              dup1\n              revert\n            tag_94:\n                /* \"Campaign.sol\":2095:2099  true */\n              0x01\n                /* \"Campaign.sol\":2063:2070  request */\n              dup2\n                /* \"Campaign.sol\":2063:2080  request.approvals */\n              0x04\n              add\n                /* \"Campaign.sol\":2063:2092  request.approvals[msg.sender] */\n              0x00\n                /* \"Campaign.sol\":2081:2091  msg.sender */\n              caller\n                /* \"Campaign.sol\":2063:2092  request.approvals[msg.sender] */\n              0xffffffffffffffffffffffffffffffffffffffff\n              and\n              0xffffffffffffffffffffffffffffffffffffffff\n              and\n              dup2\n              mstore\n              0x20\n              add\n              swap1\n              dup2\n              mstore\n              0x20\n              add\n              0x00\n              keccak256\n              0x00\n                /* \"Campaign.sol\":2063:2099  request.approvals[msg.sender] = true */\n              0x0100\n              exp\n              dup2\n              sload\n              dup2\n              0xff\n              mul\n              not\n              and\n              swap1\n              dup4\n              iszero\n              iszero\n              mul\n              or\n              swap1\n              sstore\n              pop\n                /* \"Campaign.sol\":2109:2116  request */\n              dup1\n                /* \"Campaign.sol\":2109:2130  request.approvalCount */\n              0x03\n              add\n              0x00\n                /* \"Campaign.sol\":2109:2132  request.approvalCount++ */\n              dup2\n              sload\n              dup1\n              swap3\n              swap2\n              swap1\n              tag_95\n              swap1\n              tag_86\n              jump\t// in\n            tag_95:\n              swap2\n              swap1\n              pop\n              sstore\n              pop\n                /* \"Campaign.sol\":1912:2139  {... */\n              pop\n                /* \"Campaign.sol\":1866:2139  function approveRequest(uint256 index) public {... */\n              pop\n              jump\t// out\n                /* \"Campaign.sol\":665:693  uint256 public requestsCount */\n            tag_64:\n              sload(0x00)\n              dup2\n              jump\t// out\n            tag_88:\n              dup3\n              dup1\n              sload\n              tag_96\n              swap1\n              tag_77\n              jump\t// in\n            tag_96:\n              swap1\n              0x00\n              mstore\n              keccak256(0x00, 0x20)\n              swap1\n              0x1f\n              add\n              0x20\n              swap1\n              div\n              dup2\n              add\n              swap3\n              dup3\n              tag_98\n              jumpi\n              0x00\n              dup6\n              sstore\n              jump(tag_97)\n            tag_98:\n              dup3\n              0x1f\n              lt\n              tag_99\n              jumpi\n              dup1\n              mload\n              not(0xff)\n              and\n              dup4\n              dup1\n              add\n              or\n              dup6\n              sstore\n              jump(tag_97)\n            tag_99:\n              dup3\n              dup1\n              add\n              0x01\n              add\n              dup6\n              sstore\n              dup3\n              iszero\n              tag_97\n              jumpi\n              swap2\n              dup3\n              add\n            tag_100:\n              dup3\n              dup2\n              gt\n              iszero\n              tag_101\n              jumpi\n              dup3\n              mload\n              dup3\n              sstore\n              swap2\n              0x20\n              add\n              swap2\n              swap1\n              0x01\n              add\n              swap1\n              jump(tag_100)\n            tag_101:\n            tag_97:\n              pop\n              swap1\n              pop\n              tag_102\n              swap2\n              swap1\n              tag_103\n              jump\t// in\n            tag_102:\n              pop\n              swap1\n              jump\t// out\n            tag_103:\n            tag_104:\n              dup1\n              dup3\n              gt\n              iszero\n              tag_105\n              jumpi\n              0x00\n              dup2\n              0x00\n              swap1\n              sstore\n              pop\n              0x01\n              add\n              jump(tag_104)\n            tag_105:\n              pop\n              swap1\n              jump\t// out\n                /* \"#utility.yul\":7:419   */\n            tag_107:\n                /* \"#utility.yul\":85:90   */\n              0x00\n                /* \"#utility.yul\":110:176   */\n              tag_109\n                /* \"#utility.yul\":126:175   */\n              tag_110\n                /* \"#utility.yul\":168:174   */\n              dup5\n                /* \"#utility.yul\":126:175   */\n              tag_111\n              jump\t// in\n            tag_110:\n                /* \"#utility.yul\":110:176   */\n              tag_112\n              jump\t// in\n            tag_109:\n                /* \"#utility.yul\":101:176   */\n              swap1\n              pop\n                /* \"#utility.yul\":199:205   */\n              dup3\n                /* \"#utility.yul\":192:197   */\n              dup2\n                /* \"#utility.yul\":185:206   */\n              mstore\n                /* \"#utility.yul\":237:241   */\n              0x20\n                /* \"#utility.yul\":230:235   */\n              dup2\n                /* \"#utility.yul\":226:242   */\n              add\n                /* \"#utility.yul\":275:278   */\n              dup5\n                /* \"#utility.yul\":266:272   */\n              dup5\n                /* \"#utility.yul\":261:264   */\n              dup5\n                /* \"#utility.yul\":257:273   */\n              add\n                /* \"#utility.yul\":254:279   */\n              gt\n                /* \"#utility.yul\":251:363   */\n              iszero\n              tag_113\n              jumpi\n                /* \"#utility.yul\":282:361   */\n              tag_114\n              tag_115\n              jump\t// in\n            tag_114:\n                /* \"#utility.yul\":251:363   */\n            tag_113:\n                /* \"#utility.yul\":372:413   */\n              tag_116\n                /* \"#utility.yul\":406:412   */\n              dup5\n                /* \"#utility.yul\":401:404   */\n              dup3\n                /* \"#utility.yul\":396:399   */\n              dup6\n                /* \"#utility.yul\":372:413   */\n              tag_117\n              jump\t// in\n            tag_116:\n                /* \"#utility.yul\":91:419   */\n              pop\n                /* \"#utility.yul\":7:419   */\n              swap4\n              swap3\n              pop\n              pop\n              pop\n              jump\t// out\n                /* \"#utility.yul\":425:564   */\n            tag_118:\n                /* \"#utility.yul\":471:476   */\n              0x00\n                /* \"#utility.yul\":509:515   */\n              dup2\n                /* \"#utility.yul\":496:516   */\n              calldataload\n                /* \"#utility.yul\":487:516   */\n              swap1\n              pop\n                /* \"#utility.yul\":525:558   */\n              tag_120\n                /* \"#utility.yul\":552:557   */\n              dup2\n                /* \"#utility.yul\":525:558   */\n              tag_121\n              jump\t// in\n            tag_120:\n                /* \"#utility.yul\":425:564   */\n              swap3\n              swap2\n              pop\n              pop\n              jump\t// out\n                /* \"#utility.yul\":584:924   */\n            tag_122:\n                /* \"#utility.yul\":640:645   */\n              0x00\n                /* \"#utility.yul\":689:692   */\n              dup3\n                /* \"#utility.yul\":682:686   */\n              0x1f\n                /* \"#utility.yul\":674:680   */\n              dup4\n                /* \"#utility.yul\":670:687   */\n              add\n                /* \"#utility.yul\":666:693   */\n              slt\n                /* \"#utility.yul\":656:778   */\n              tag_124\n              jumpi\n                /* \"#utility.yul\":697:776   */\n              tag_125\n              tag_126\n              jump\t// in\n            tag_125:\n                /* \"#utility.yul\":656:778   */\n            tag_124:\n                /* \"#utility.yul\":814:820   */\n              dup2\n                /* \"#utility.yul\":801:821   */\n              calldataload\n                /* \"#utility.yul\":839:918   */\n              tag_127\n                /* \"#utility.yul\":914:917   */\n              dup5\n                /* \"#utility.yul\":906:912   */\n              dup3\n                /* \"#utility.yul\":899:903   */\n              0x20\n                /* \"#utility.yul\":891:897   */\n              dup7\n                /* \"#utility.yul\":887:904   */\n              add\n                /* \"#utility.yul\":839:918   */\n              tag_107\n              jump\t// in\n            tag_127:\n                /* \"#utility.yul\":830:918   */\n              swap2\n              pop\n                /* \"#utility.yul\":646:924   */\n              pop\n                /* \"#utility.yul\":584:924   */\n              swap3\n              swap2\n              pop\n              pop\n              jump\t// out\n                /* \"#utility.yul\":930:1069   */\n            tag_128:\n                /* \"#utility.yul\":976:981   */\n              0x00\n                /* \"#utility.yul\":1014:1020   */\n              dup2\n                /* \"#utility.yul\":1001:1021   */\n              calldataload\n                /* \"#utility.yul\":992:1021   */\n              swap1\n              pop\n                /* \"#utility.yul\":1030:1063   */\n              tag_130\n                /* \"#utility.yul\":1057:1062   */\n              dup2\n                /* \"#utility.yul\":1030:1063   */\n              tag_131\n              jump\t// in\n            tag_130:\n                /* \"#utility.yul\":930:1069   */\n              swap3\n              swap2\n              pop\n              pop\n              jump\t// out\n                /* \"#utility.yul\":1075:1404   */\n            tag_22:\n                /* \"#utility.yul\":1134:1140   */\n              0x00\n                /* \"#utility.yul\":1183:1185   */\n              0x20\n                /* \"#utility.yul\":1171:1180   */\n              dup3\n                /* \"#utility.yul\":1162:1169   */\n              dup5\n                /* \"#utility.yul\":1158:1181   */\n              sub\n                /* \"#utility.yul\":1154:1186   */\n              slt\n                /* \"#utility.yul\":1151:1270   */\n              iszero\n              tag_133\n              jumpi\n                /* \"#utility.yul\":1189:1268   */\n              tag_134\n              tag_135\n              jump\t// in\n            tag_134:\n                /* \"#utility.yul\":1151:1270   */\n            tag_133:\n                /* \"#utility.yul\":1309:1310   */\n              0x00\n                /* \"#utility.yul\":1334:1387   */\n              tag_136\n                /* \"#utility.yul\":1379:1386   */\n              dup5\n                /* \"#utility.yul\":1370:1376   */\n              dup3\n                /* \"#utility.yul\":1359:1368   */\n              dup6\n                /* \"#utility.yul\":1355:1377   */\n              add\n                /* \"#utility.yul\":1334:1387   */\n              tag_118\n              jump\t// in\n            tag_136:\n                /* \"#utility.yul\":1324:1387   */\n              swap2\n              pop\n                /* \"#utility.yul\":1280:1397   */\n              pop\n                /* \"#utility.yul\":1075:1404   */\n              swap3\n              swap2\n              pop\n              pop\n              jump\t// out\n                /* \"#utility.yul\":1410:2209   */\n            tag_50:\n                /* \"#utility.yul\":1497:1503   */\n              0x00\n                /* \"#utility.yul\":1505:1511   */\n              dup1\n                /* \"#utility.yul\":1513:1519   */\n              0x00\n                /* \"#utility.yul\":1562:1564   */\n              0x60\n                /* \"#utility.yul\":1550:1559   */\n              dup5\n                /* \"#utility.yul\":1541:1548   */\n              dup7\n                /* \"#utility.yul\":1537:1560   */\n              sub\n                /* \"#utility.yul\":1533:1565   */\n              slt\n                /* \"#utility.yul\":1530:1649   */\n              iszero\n              tag_138\n              jumpi\n                /* \"#utility.yul\":1568:1647   */\n              tag_139\n              tag_135\n              jump\t// in\n            tag_139:\n                /* \"#utility.yul\":1530:1649   */\n            tag_138:\n                /* \"#utility.yul\":1716:1717   */\n              0x00\n                /* \"#utility.yul\":1705:1714   */\n              dup5\n                /* \"#utility.yul\":1701:1718   */\n              add\n                /* \"#utility.yul\":1688:1719   */\n              calldataload\n                /* \"#utility.yul\":1746:1764   */\n              0xffffffffffffffff\n                /* \"#utility.yul\":1738:1744   */\n              dup2\n                /* \"#utility.yul\":1735:1765   */\n              gt\n                /* \"#utility.yul\":1732:1849   */\n              iszero\n              tag_140\n              jumpi\n                /* \"#utility.yul\":1768:1847   */\n              tag_141\n              tag_142\n              jump\t// in\n            tag_141:\n                /* \"#utility.yul\":1732:1849   */\n            tag_140:\n                /* \"#utility.yul\":1873:1936   */\n              tag_143\n                /* \"#utility.yul\":1928:1935   */\n              dup7\n                /* \"#utility.yul\":1919:1925   */\n              dup3\n                /* \"#utility.yul\":1908:1917   */\n              dup8\n                /* \"#utility.yul\":1904:1926   */\n              add\n                /* \"#utility.yul\":1873:1936   */\n              tag_122\n              jump\t// in\n            tag_143:\n                /* \"#utility.yul\":1863:1936   */\n              swap4\n              pop\n                /* \"#utility.yul\":1659:1946   */\n              pop\n                /* \"#utility.yul\":1985:1987   */\n              0x20\n                /* \"#utility.yul\":2011:2064   */\n              tag_144\n                /* \"#utility.yul\":2056:2063   */\n              dup7\n                /* \"#utility.yul\":2047:2053   */\n              dup3\n                /* \"#utility.yul\":2036:2045   */\n              dup8\n                /* \"#utility.yul\":2032:2054   */\n              add\n                /* \"#utility.yul\":2011:2064   */\n              tag_128\n              jump\t// in\n            tag_144:\n                /* \"#utility.yul\":2001:2064   */\n              swap3\n              pop\n                /* \"#utility.yul\":1956:2074   */\n              pop\n                /* \"#utility.yul\":2113:2115   */\n              0x40\n                /* \"#utility.yul\":2139:2192   */\n              tag_145\n                /* \"#utility.yul\":2184:2191   */\n              dup7\n                /* \"#utility.yul\":2175:2181   */\n              dup3\n                /* \"#utility.yul\":2164:2173   */\n              dup8\n                /* \"#utility.yul\":2160:2182   */\n              add\n                /* \"#utility.yul\":2139:2192   */\n              tag_118\n              jump\t// in\n            tag_145:\n                /* \"#utility.yul\":2129:2192   */\n              swap2\n              pop\n                /* \"#utility.yul\":2084:2202   */\n              pop\n                /* \"#utility.yul\":1410:2209   */\n              swap3\n              pop\n              swap3\n              pop\n              swap3\n              jump\t// out\n                /* \"#utility.yul\":2215:2544   */\n            tag_17:\n                /* \"#utility.yul\":2274:2280   */\n              0x00\n                /* \"#utility.yul\":2323:2325   */\n              0x20\n                /* \"#utility.yul\":2311:2320   */\n              dup3\n                /* \"#utility.yul\":2302:2309   */\n              dup5\n                /* \"#utility.yul\":2298:2321   */\n              sub\n                /* \"#utility.yul\":2294:2326   */\n              slt\n                /* \"#utility.yul\":2291:2410   */\n              iszero\n              tag_147\n              jumpi\n                /* \"#utility.yul\":2329:2408   */\n              tag_148\n              tag_135\n              jump\t// in\n            tag_148:\n                /* \"#utility.yul\":2291:2410   */\n            tag_147:\n                /* \"#utility.yul\":2449:2450   */\n              0x00\n                /* \"#utility.yul\":2474:2527   */\n              tag_149\n                /* \"#utility.yul\":2519:2526   */\n              dup5\n                /* \"#utility.yul\":2510:2516   */\n              dup3\n                /* \"#utility.yul\":2499:2508   */\n              dup6\n                /* \"#utility.yul\":2495:2517   */\n              add\n                /* \"#utility.yul\":2474:2527   */\n              tag_128\n              jump\t// in\n            tag_149:\n                /* \"#utility.yul\":2464:2527   */\n              swap2\n              pop\n                /* \"#utility.yul\":2420:2537   */\n              pop\n                /* \"#utility.yul\":2215:2544   */\n              swap3\n              swap2\n              pop\n              pop\n              jump\t// out\n                /* \"#utility.yul\":2550:2668   */\n            tag_150:\n                /* \"#utility.yul\":2637:2661   */\n              tag_152\n                /* \"#utility.yul\":2655:2660   */\n              dup2\n                /* \"#utility.yul\":2637:2661   */\n              tag_153\n              jump\t// in\n            tag_152:\n                /* \"#utility.yul\":2632:2635   */\n              dup3\n                /* \"#utility.yul\":2625:2662   */\n              mstore\n                /* \"#utility.yul\":2550:2668   */\n              pop\n              pop\n              jump\t// out\n                /* \"#utility.yul\":2674:2783   */\n            tag_154:\n                /* \"#utility.yul\":2755:2776   */\n              tag_156\n                /* \"#utility.yul\":2770:2775   */\n              dup2\n                /* \"#utility.yul\":2755:2776   */\n              tag_157\n              jump\t// in\n            tag_156:\n                /* \"#utility.yul\":2750:2753   */\n              dup3\n                /* \"#utility.yul\":2743:2777   */\n              mstore\n                /* \"#utility.yul\":2674:2783   */\n              pop\n              pop\n              jump\t// out\n                /* \"#utility.yul\":2789:3153   */\n            tag_158:\n                /* \"#utility.yul\":2877:2880   */\n              0x00\n                /* \"#utility.yul\":2905:2944   */\n              tag_160\n                /* \"#utility.yul\":2938:2943   */\n              dup3\n                /* \"#utility.yul\":2905:2944   */\n              tag_161\n              jump\t// in\n            tag_160:\n                /* \"#utility.yul\":2960:3031   */\n              tag_162\n                /* \"#utility.yul\":3024:3030   */\n              dup2\n                /* \"#utility.yul\":3019:3022   */\n              dup6\n                /* \"#utility.yul\":2960:3031   */\n              tag_163\n              jump\t// in\n            tag_162:\n                /* \"#utility.yul\":2953:3031   */\n              swap4\n              pop\n                /* \"#utility.yul\":3040:3092   */\n              tag_164\n                /* \"#utility.yul\":3085:3091   */\n              dup2\n                /* \"#utility.yul\":3080:3083   */\n              dup6\n                /* \"#utility.yul\":3073:3077   */\n              0x20\n                /* \"#utility.yul\":3066:3071   */\n              dup7\n                /* \"#utility.yul\":3062:3078   */\n              add\n                /* \"#utility.yul\":3040:3092   */\n              tag_165\n              jump\t// in\n            tag_164:\n                /* \"#utility.yul\":3117:3146   */\n              tag_166\n                /* \"#utility.yul\":3139:3145   */\n              dup2\n                /* \"#utility.yul\":3117:3146   */\n              tag_167\n              jump\t// in\n            tag_166:\n                /* \"#utility.yul\":3112:3115   */\n              dup5\n                /* \"#utility.yul\":3108:3147   */\n              add\n                /* \"#utility.yul\":3101:3147   */\n              swap2\n              pop\n                /* \"#utility.yul\":2881:3153   */\n              pop\n                /* \"#utility.yul\":2789:3153   */\n              swap3\n              swap2\n              pop\n              pop\n              jump\t// out\n                /* \"#utility.yul\":3159:3277   */\n            tag_168:\n                /* \"#utility.yul\":3246:3270   */\n              tag_170\n                /* \"#utility.yul\":3264:3269   */\n              dup2\n                /* \"#utility.yul\":3246:3270   */\n              tag_171\n              jump\t// in\n            tag_170:\n                /* \"#utility.yul\":3241:3244   */\n              dup3\n                /* \"#utility.yul\":3234:3271   */\n              mstore\n                /* \"#utility.yul\":3159:3277   */\n              pop\n              pop\n              jump\t// out\n                /* \"#utility.yul\":3283:3505   */\n            tag_35:\n                /* \"#utility.yul\":3376:3380   */\n              0x00\n                /* \"#utility.yul\":3414:3416   */\n              0x20\n                /* \"#utility.yul\":3403:3412   */\n              dup3\n                /* \"#utility.yul\":3399:3417   */\n              add\n                /* \"#utility.yul\":3391:3417   */\n              swap1\n              pop\n                /* \"#utility.yul\":3427:3498   */\n              tag_173\n                /* \"#utility.yul\":3495:3496   */\n              0x00\n                /* \"#utility.yul\":3484:3493   */\n              dup4\n                /* \"#utility.yul\":3480:3497   */\n              add\n                /* \"#utility.yul\":3471:3477   */\n              dup5\n                /* \"#utility.yul\":3427:3498   */\n              tag_150\n              jump\t// in\n            tag_173:\n                /* \"#utility.yul\":3283:3505   */\n              swap3\n              swap2\n              pop\n              pop\n              jump\t// out\n                /* \"#utility.yul\":3511:3721   */\n            tag_25:\n                /* \"#utility.yul\":3598:3602   */\n              0x00\n                /* \"#utility.yul\":3636:3638   */\n              0x20\n                /* \"#utility.yul\":3625:3634   */\n              dup3\n                /* \"#utility.yul\":3621:3639   */\n              add\n                /* \"#utility.yul\":3613:3639   */\n              swap1\n              pop\n                /* \"#utility.yul\":3649:3714   */\n              tag_175\n                /* \"#utility.yul\":3711:3712   */\n              0x00\n                /* \"#utility.yul\":3700:3709   */\n              dup4\n                /* \"#utility.yul\":3696:3713   */\n              add\n                /* \"#utility.yul\":3687:3693   */\n              dup5\n                /* \"#utility.yul\":3649:3714   */\n              tag_154\n              jump\t// in\n            tag_175:\n                /* \"#utility.yul\":3511:3721   */\n              swap3\n              swap2\n              pop\n              pop\n              jump\t// out\n                /* \"#utility.yul\":3727:4470   */\n            tag_41:\n                /* \"#utility.yul\":3946:3950   */\n              0x00\n                /* \"#utility.yul\":3984:3987   */\n              0xa0\n                /* \"#utility.yul\":3973:3982   */\n              dup3\n                /* \"#utility.yul\":3969:3988   */\n              add\n                /* \"#utility.yul\":3961:3988   */\n              swap1\n              pop\n                /* \"#utility.yul\":4034:4043   */\n              dup2\n                /* \"#utility.yul\":4028:4032   */\n              dup2\n                /* \"#utility.yul\":4024:4044   */\n              sub\n                /* \"#utility.yul\":4020:4021   */\n              0x00\n                /* \"#utility.yul\":4009:4018   */\n              dup4\n                /* \"#utility.yul\":4005:4022   */\n              add\n                /* \"#utility.yul\":3998:4045   */\n              mstore\n                /* \"#utility.yul\":4062:4140   */\n              tag_177\n                /* \"#utility.yul\":4135:4139   */\n              dup2\n                /* \"#utility.yul\":4126:4132   */\n              dup9\n                /* \"#utility.yul\":4062:4140   */\n              tag_158\n              jump\t// in\n            tag_177:\n                /* \"#utility.yul\":4054:4140   */\n              swap1\n              pop\n                /* \"#utility.yul\":4150:4222   */\n              tag_178\n                /* \"#utility.yul\":4218:4220   */\n              0x20\n                /* \"#utility.yul\":4207:4216   */\n              dup4\n                /* \"#utility.yul\":4203:4221   */\n              add\n                /* \"#utility.yul\":4194:4200   */\n              dup8\n                /* \"#utility.yul\":4150:4222   */\n              tag_168\n              jump\t// in\n            tag_178:\n                /* \"#utility.yul\":4232:4304   */\n              tag_179\n                /* \"#utility.yul\":4300:4302   */\n              0x40\n                /* \"#utility.yul\":4289:4298   */\n              dup4\n                /* \"#utility.yul\":4285:4303   */\n              add\n                /* \"#utility.yul\":4276:4282   */\n              dup7\n                /* \"#utility.yul\":4232:4304   */\n              tag_150\n              jump\t// in\n            tag_179:\n                /* \"#utility.yul\":4314:4380   */\n              tag_180\n                /* \"#utility.yul\":4376:4378   */\n              0x60\n                /* \"#utility.yul\":4365:4374   */\n              dup4\n                /* \"#utility.yul\":4361:4379   */\n              add\n                /* \"#utility.yul\":4352:4358   */\n              dup6\n                /* \"#utility.yul\":4314:4380   */\n              tag_154\n              jump\t// in\n            tag_180:\n                /* \"#utility.yul\":4390:4463   */\n              tag_181\n                /* \"#utility.yul\":4458:4461   */\n              0x80\n                /* \"#utility.yul\":4447:4456   */\n              dup4\n                /* \"#utility.yul\":4443:4462   */\n              add\n                /* \"#utility.yul\":4434:4440   */\n              dup5\n                /* \"#utility.yul\":4390:4463   */\n              tag_168\n              jump\t// in\n            tag_181:\n                /* \"#utility.yul\":3727:4470   */\n              swap7\n              swap6\n              pop\n              pop\n              pop\n              pop\n              pop\n              pop\n              jump\t// out\n                /* \"#utility.yul\":4476:4698   */\n            tag_46:\n                /* \"#utility.yul\":4569:4573   */\n              0x00\n                /* \"#utility.yul\":4607:4609   */\n              0x20\n                /* \"#utility.yul\":4596:4605   */\n              dup3\n                /* \"#utility.yul\":4592:4610   */\n              add\n                /* \"#utility.yul\":4584:4610   */\n              swap1\n              pop\n                /* \"#utility.yul\":4620:4691   */\n              tag_183\n                /* \"#utility.yul\":4688:4689   */\n              0x00\n                /* \"#utility.yul\":4677:4686   */\n              dup4\n                /* \"#utility.yul\":4673:4690   */\n              add\n                /* \"#utility.yul\":4664:4670   */\n              dup5\n                /* \"#utility.yul\":4620:4691   */\n              tag_168\n              jump\t// in\n            tag_183:\n                /* \"#utility.yul\":4476:4698   */\n              swap3\n              swap2\n              pop\n              pop\n              jump\t// out\n                /* \"#utility.yul\":4704:5368   */\n            tag_30:\n                /* \"#utility.yul\":4909:4913   */\n              0x00\n                /* \"#utility.yul\":4947:4950   */\n              0xa0\n                /* \"#utility.yul\":4936:4945   */\n              dup3\n                /* \"#utility.yul\":4932:4951   */\n              add\n                /* \"#utility.yul\":4924:4951   */\n              swap1\n              pop\n                /* \"#utility.yul\":4961:5032   */\n              tag_185\n                /* \"#utility.yul\":5029:5030   */\n              0x00\n                /* \"#utility.yul\":5018:5027   */\n              dup4\n                /* \"#utility.yul\":5014:5031   */\n              add\n                /* \"#utility.yul\":5005:5011   */\n              dup9\n                /* \"#utility.yul\":4961:5032   */\n              tag_168\n              jump\t// in\n            tag_185:\n                /* \"#utility.yul\":5042:5114   */\n              tag_186\n                /* \"#utility.yul\":5110:5112   */\n              0x20\n                /* \"#utility.yul\":5099:5108   */\n              dup4\n                /* \"#utility.yul\":5095:5113   */\n              add\n                /* \"#utility.yul\":5086:5092   */\n              dup8\n                /* \"#utility.yul\":5042:5114   */\n              tag_168\n              jump\t// in\n            tag_186:\n                /* \"#utility.yul\":5124:5196   */\n              tag_187\n                /* \"#utility.yul\":5192:5194   */\n              0x40\n                /* \"#utility.yul\":5181:5190   */\n              dup4\n                /* \"#utility.yul\":5177:5195   */\n              add\n                /* \"#utility.yul\":5168:5174   */\n              dup7\n                /* \"#utility.yul\":5124:5196   */\n              tag_168\n              jump\t// in\n            tag_187:\n                /* \"#utility.yul\":5206:5278   */\n              tag_188\n                /* \"#utility.yul\":5274:5276   */\n              0x60\n                /* \"#utility.yul\":5263:5272   */\n              dup4\n                /* \"#utility.yul\":5259:5277   */\n              add\n                /* \"#utility.yul\":5250:5256   */\n              dup6\n                /* \"#utility.yul\":5206:5278   */\n              tag_168\n              jump\t// in\n            tag_188:\n                /* \"#utility.yul\":5288:5361   */\n              tag_189\n                /* \"#utility.yul\":5356:5359   */\n              0x80\n                /* \"#utility.yul\":5345:5354   */\n              dup4\n                /* \"#utility.yul\":5341:5360   */\n              add\n                /* \"#utility.yul\":5332:5338   */\n              dup5\n                /* \"#utility.yul\":5288:5361   */\n              tag_150\n              jump\t// in\n            tag_189:\n                /* \"#utility.yul\":4704:5368   */\n              swap7\n              swap6\n              pop\n              pop\n              pop\n              pop\n              pop\n              pop\n              jump\t// out\n                /* \"#utility.yul\":5374:5503   */\n            tag_112:\n                /* \"#utility.yul\":5408:5414   */\n              0x00\n                /* \"#utility.yul\":5435:5455   */\n              tag_191\n              tag_192\n              jump\t// in\n            tag_191:\n                /* \"#utility.yul\":5425:5455   */\n              swap1\n              pop\n                /* \"#utility.yul\":5464:5497   */\n              tag_193\n                /* \"#utility.yul\":5492:5496   */\n              dup3\n                /* \"#utility.yul\":5484:5490   */\n              dup3\n                /* \"#utility.yul\":5464:5497   */\n              tag_194\n              jump\t// in\n            tag_193:\n                /* \"#utility.yul\":5374:5503   */\n              swap2\n              swap1\n              pop\n              jump\t// out\n                /* \"#utility.yul\":5509:5584   */\n            tag_192:\n                /* \"#utility.yul\":5542:5548   */\n              0x00\n                /* \"#utility.yul\":5575:5577   */\n              0x40\n                /* \"#utility.yul\":5569:5578   */\n              mload\n                /* \"#utility.yul\":5559:5578   */\n              swap1\n              pop\n                /* \"#utility.yul\":5509:5584   */\n              swap1\n              jump\t// out\n                /* \"#utility.yul\":5590:5898   */\n            tag_111:\n                /* \"#utility.yul\":5652:5656   */\n              0x00\n                /* \"#utility.yul\":5742:5760   */\n              0xffffffffffffffff\n                /* \"#utility.yul\":5734:5740   */\n              dup3\n                /* \"#utility.yul\":5731:5761   */\n              gt\n                /* \"#utility.yul\":5728:5784   */\n              iszero\n              tag_197\n              jumpi\n                /* \"#utility.yul\":5764:5782   */\n              tag_198\n              tag_199\n              jump\t// in\n            tag_198:\n                /* \"#utility.yul\":5728:5784   */\n            tag_197:\n                /* \"#utility.yul\":5802:5831   */\n              tag_200\n                /* \"#utility.yul\":5824:5830   */\n              dup3\n                /* \"#utility.yul\":5802:5831   */\n              tag_167\n              jump\t// in\n            tag_200:\n                /* \"#utility.yul\":5794:5831   */\n              swap1\n              pop\n                /* \"#utility.yul\":5886:5890   */\n              0x20\n                /* \"#utility.yul\":5880:5884   */\n              dup2\n                /* \"#utility.yul\":5876:5891   */\n              add\n                /* \"#utility.yul\":5868:5891   */\n              swap1\n              pop\n                /* \"#utility.yul\":5590:5898   */\n              swap2\n              swap1\n              pop\n              jump\t// out\n                /* \"#utility.yul\":5904:6003   */\n            tag_161:\n                /* \"#utility.yul\":5956:5962   */\n              0x00\n                /* \"#utility.yul\":5990:5995   */\n              dup2\n                /* \"#utility.yul\":5984:5996   */\n              mload\n                /* \"#utility.yul\":5974:5996   */\n              swap1\n              pop\n                /* \"#utility.yul\":5904:6003   */\n              swap2\n              swap1\n              pop\n              jump\t// out\n                /* \"#utility.yul\":6009:6178   */\n            tag_163:\n                /* \"#utility.yul\":6093:6104   */\n              0x00\n                /* \"#utility.yul\":6127:6133   */\n              dup3\n                /* \"#utility.yul\":6122:6125   */\n              dup3\n                /* \"#utility.yul\":6115:6134   */\n              mstore\n                /* \"#utility.yul\":6167:6171   */\n              0x20\n                /* \"#utility.yul\":6162:6165   */\n              dup3\n                /* \"#utility.yul\":6158:6172   */\n              add\n                /* \"#utility.yul\":6143:6172   */\n              swap1\n              pop\n                /* \"#utility.yul\":6009:6178   */\n              swap3\n              swap2\n              pop\n              pop\n              jump\t// out\n                /* \"#utility.yul\":6184:6369   */\n            tag_70:\n                /* \"#utility.yul\":6224:6225   */\n              0x00\n                /* \"#utility.yul\":6241:6261   */\n              tag_204\n                /* \"#utility.yul\":6259:6260   */\n              dup3\n                /* \"#utility.yul\":6241:6261   */\n              tag_171\n              jump\t// in\n            tag_204:\n                /* \"#utility.yul\":6236:6261   */\n              swap2\n              pop\n                /* \"#utility.yul\":6275:6295   */\n              tag_205\n                /* \"#utility.yul\":6293:6294   */\n              dup4\n                /* \"#utility.yul\":6275:6295   */\n              tag_171\n              jump\t// in\n            tag_205:\n                /* \"#utility.yul\":6270:6295   */\n              swap3\n              pop\n                /* \"#utility.yul\":6314:6315   */\n              dup3\n                /* \"#utility.yul\":6304:6339   */\n              tag_206\n              jumpi\n                /* \"#utility.yul\":6319:6337   */\n              tag_207\n              tag_208\n              jump\t// in\n            tag_207:\n                /* \"#utility.yul\":6304:6339   */\n            tag_206:\n                /* \"#utility.yul\":6361:6362   */\n              dup3\n                /* \"#utility.yul\":6358:6359   */\n              dup3\n                /* \"#utility.yul\":6354:6363   */\n              div\n                /* \"#utility.yul\":6349:6363   */\n              swap1\n              pop\n                /* \"#utility.yul\":6184:6369   */\n              swap3\n              swap2\n              pop\n              pop\n              jump\t// out\n                /* \"#utility.yul\":6375:6471   */\n            tag_153:\n                /* \"#utility.yul\":6412:6419   */\n              0x00\n                /* \"#utility.yul\":6441:6465   */\n              tag_210\n                /* \"#utility.yul\":6459:6464   */\n              dup3\n                /* \"#utility.yul\":6441:6465   */\n              tag_211\n              jump\t// in\n            tag_210:\n                /* \"#utility.yul\":6430:6465   */\n              swap1\n              pop\n                /* \"#utility.yul\":6375:6471   */\n              swap2\n              swap1\n              pop\n              jump\t// out\n                /* \"#utility.yul\":6477:6567   */\n            tag_157:\n                /* \"#utility.yul\":6511:6518   */\n              0x00\n                /* \"#utility.yul\":6554:6559   */\n              dup2\n                /* \"#utility.yul\":6547:6560   */\n              iszero\n                /* \"#utility.yul\":6540:6561   */\n              iszero\n                /* \"#utility.yul\":6529:6561   */\n              swap1\n              pop\n                /* \"#utility.yul\":6477:6567   */\n              swap2\n              swap1\n              pop\n              jump\t// out\n                /* \"#utility.yul\":6573:6699   */\n            tag_211:\n                /* \"#utility.yul\":6610:6617   */\n              0x00\n                /* \"#utility.yul\":6650:6692   */\n              0xffffffffffffffffffffffffffffffffffffffff\n                /* \"#utility.yul\":6643:6648   */\n              dup3\n                /* \"#utility.yul\":6639:6693   */\n              and\n                /* \"#utility.yul\":6628:6693   */\n              swap1\n              pop\n                /* \"#utility.yul\":6573:6699   */\n              swap2\n              swap1\n              pop\n              jump\t// out\n                /* \"#utility.yul\":6705:6782   */\n            tag_171:\n                /* \"#utility.yul\":6742:6749   */\n              0x00\n                /* \"#utility.yul\":6771:6776   */\n              dup2\n                /* \"#utility.yul\":6760:6776   */\n              swap1\n              pop\n                /* \"#utility.yul\":6705:6782   */\n              swap2\n              swap1\n              pop\n              jump\t// out\n                /* \"#utility.yul\":6788:6942   */\n            tag_117:\n                /* \"#utility.yul\":6872:6878   */\n              dup3\n                /* \"#utility.yul\":6867:6870   */\n              dup2\n                /* \"#utility.yul\":6862:6865   */\n              dup4\n                /* \"#utility.yul\":6849:6879   */\n              calldatacopy\n                /* \"#utility.yul\":6934:6935   */\n              0x00\n                /* \"#utility.yul\":6925:6931   */\n              dup4\n                /* \"#utility.yul\":6920:6923   */\n              dup4\n                /* \"#utility.yul\":6916:6932   */\n              add\n                /* \"#utility.yul\":6909:6936   */\n              mstore\n                /* \"#utility.yul\":6788:6942   */\n              pop\n              pop\n              pop\n              jump\t// out\n                /* \"#utility.yul\":6948:7255   */\n            tag_165:\n                /* \"#utility.yul\":7016:7017   */\n              0x00\n                /* \"#utility.yul\":7026:7139   */\n            tag_217:\n                /* \"#utility.yul\":7040:7046   */\n              dup4\n                /* \"#utility.yul\":7037:7038   */\n              dup2\n                /* \"#utility.yul\":7034:7047   */\n              lt\n                /* \"#utility.yul\":7026:7139   */\n              iszero\n              tag_219\n              jumpi\n                /* \"#utility.yul\":7125:7126   */\n              dup1\n                /* \"#utility.yul\":7120:7123   */\n              dup3\n                /* \"#utility.yul\":7116:7127   */\n              add\n                /* \"#utility.yul\":7110:7128   */\n              mload\n                /* \"#utility.yul\":7106:7107   */\n              dup2\n                /* \"#utility.yul\":7101:7104   */\n              dup5\n                /* \"#utility.yul\":7097:7108   */\n              add\n                /* \"#utility.yul\":7090:7129   */\n              mstore\n                /* \"#utility.yul\":7062:7064   */\n              0x20\n                /* \"#utility.yul\":7059:7060   */\n              dup2\n                /* \"#utility.yul\":7055:7065   */\n              add\n                /* \"#utility.yul\":7050:7065   */\n              swap1\n              pop\n                /* \"#utility.yul\":7026:7139   */\n              jump(tag_217)\n            tag_219:\n                /* \"#utility.yul\":7157:7163   */\n              dup4\n                /* \"#utility.yul\":7154:7155   */\n              dup2\n                /* \"#utility.yul\":7151:7164   */\n              gt\n                /* \"#utility.yul\":7148:7249   */\n              iszero\n              tag_220\n              jumpi\n                /* \"#utility.yul\":7237:7238   */\n              0x00\n                /* \"#utility.yul\":7228:7234   */\n              dup5\n                /* \"#utility.yul\":7223:7226   */\n              dup5\n                /* \"#utility.yul\":7219:7235   */\n              add\n                /* \"#utility.yul\":7212:7239   */\n              mstore\n                /* \"#utility.yul\":7148:7249   */\n            tag_220:\n                /* \"#utility.yul\":6997:7255   */\n              pop\n                /* \"#utility.yul\":6948:7255   */\n              pop\n              pop\n              pop\n              jump\t// out\n                /* \"#utility.yul\":7261:7581   */\n            tag_77:\n                /* \"#utility.yul\":7305:7311   */\n              0x00\n                /* \"#utility.yul\":7342:7343   */\n              0x02\n                /* \"#utility.yul\":7336:7340   */\n              dup3\n                /* \"#utility.yul\":7332:7344   */\n              div\n                /* \"#utility.yul\":7322:7344   */\n              swap1\n              pop\n                /* \"#utility.yul\":7389:7390   */\n              0x01\n                /* \"#utility.yul\":7383:7387   */\n              dup3\n                /* \"#utility.yul\":7379:7391   */\n              and\n                /* \"#utility.yul\":7410:7428   */\n              dup1\n                /* \"#utility.yul\":7400:7481   */\n              tag_222\n              jumpi\n                /* \"#utility.yul\":7466:7470   */\n              0x7f\n                /* \"#utility.yul\":7458:7464   */\n              dup3\n                /* \"#utility.yul\":7454:7471   */\n              and\n                /* \"#utility.yul\":7444:7471   */\n              swap2\n              pop\n                /* \"#utility.yul\":7400:7481   */\n            tag_222:\n                /* \"#utility.yul\":7528:7530   */\n              0x20\n                /* \"#utility.yul\":7520:7526   */\n              dup3\n                /* \"#utility.yul\":7517:7531   */\n              lt\n                /* \"#utility.yul\":7497:7515   */\n              dup2\n                /* \"#utility.yul\":7494:7532   */\n              eq\n                /* \"#utility.yul\":7491:7575   */\n              iszero\n              tag_223\n              jumpi\n                /* \"#utility.yul\":7547:7565   */\n              tag_224\n              tag_225\n              jump\t// in\n            tag_224:\n                /* \"#utility.yul\":7491:7575   */\n            tag_223:\n                /* \"#utility.yul\":7312:7581   */\n              pop\n                /* \"#utility.yul\":7261:7581   */\n              swap2\n              swap1\n              pop\n              jump\t// out\n                /* \"#utility.yul\":7587:7868   */\n            tag_194:\n                /* \"#utility.yul\":7670:7697   */\n              tag_227\n                /* \"#utility.yul\":7692:7696   */\n              dup3\n                /* \"#utility.yul\":7670:7697   */\n              tag_167\n              jump\t// in\n            tag_227:\n                /* \"#utility.yul\":7662:7668   */\n              dup2\n                /* \"#utility.yul\":7658:7698   */\n              add\n                /* \"#utility.yul\":7800:7806   */\n              dup2\n                /* \"#utility.yul\":7788:7798   */\n              dup2\n                /* \"#utility.yul\":7785:7807   */\n              lt\n                /* \"#utility.yul\":7764:7782   */\n              0xffffffffffffffff\n                /* \"#utility.yul\":7752:7762   */\n              dup3\n                /* \"#utility.yul\":7749:7783   */\n              gt\n                /* \"#utility.yul\":7746:7808   */\n              or\n                /* \"#utility.yul\":7743:7831   */\n              iszero\n              tag_228\n              jumpi\n                /* \"#utility.yul\":7811:7829   */\n              tag_229\n              tag_199\n              jump\t// in\n            tag_229:\n                /* \"#utility.yul\":7743:7831   */\n            tag_228:\n                /* \"#utility.yul\":7851:7861   */\n              dup1\n                /* \"#utility.yul\":7847:7849   */\n              0x40\n                /* \"#utility.yul\":7840:7862   */\n              mstore\n                /* \"#utility.yul\":7630:7868   */\n              pop\n                /* \"#utility.yul\":7587:7868   */\n              pop\n              pop\n              jump\t// out\n                /* \"#utility.yul\":7874:8107   */\n            tag_86:\n                /* \"#utility.yul\":7913:7916   */\n              0x00\n                /* \"#utility.yul\":7936:7960   */\n              tag_231\n                /* \"#utility.yul\":7954:7959   */\n              dup3\n                /* \"#utility.yul\":7936:7960   */\n              tag_171\n              jump\t// in\n            tag_231:\n                /* \"#utility.yul\":7927:7960   */\n              swap2\n              pop\n                /* \"#utility.yul\":7982:8048   */\n              0xffffffffffffffffffffffffffffffffffffffffffffffffffffffffffffffff\n                /* \"#utility.yul\":7975:7980   */\n              dup3\n                /* \"#utility.yul\":7972:8049   */\n              eq\n                /* \"#utility.yul\":7969:8072   */\n              iszero\n              tag_232\n              jumpi\n                /* \"#utility.yul\":8052:8070   */\n              tag_233\n              tag_234\n              jump\t// in\n            tag_233:\n                /* \"#utility.yul\":7969:8072   */\n            tag_232:\n                /* \"#utility.yul\":8099:8100   */\n              0x01\n                /* \"#utility.yul\":8092:8097   */\n              dup3\n                /* \"#utility.yul\":8088:8101   */\n              add\n                /* \"#utility.yul\":8081:8101   */\n              swap1\n              pop\n                /* \"#utility.yul\":7874:8107   */\n              swap2\n              swap1\n              pop\n              jump\t// out\n                /* \"#utility.yul\":8113:8293   */\n            tag_234:\n                /* \"#utility.yul\":8161:8238   */\n              0x4e487b7100000000000000000000000000000000000000000000000000000000\n                /* \"#utility.yul\":8158:8159   */\n              0x00\n                /* \"#utility.yul\":8151:8239   */\n              mstore\n                /* \"#utility.yul\":8258:8262   */\n              0x11\n                /* \"#utility.yul\":8255:8256   */\n              0x04\n                /* \"#utility.yul\":8248:8263   */\n              mstore\n                /* \"#utility.yul\":8282:8286   */\n              0x24\n                /* \"#utility.yul\":8279:8280   */\n              0x00\n                /* \"#utility.yul\":8272:8287   */\n              revert\n                /* \"#utility.yul\":8299:8479   */\n            tag_208:\n                /* \"#utility.yul\":8347:8424   */\n              0x4e487b7100000000000000000000000000000000000000000000000000000000\n                /* \"#utility.yul\":8344:8345   */\n              0x00\n                /* \"#utility.yul\":8337:8425   */\n              mstore\n                /* \"#utility.yul\":8444:8448   */\n              0x12\n                /* \"#utility.yul\":8441:8442   */\n              0x04\n                /* \"#utility.yul\":8434:8449   */\n              mstore\n                /* \"#utility.yul\":8468:8472   */\n              0x24\n                /* \"#utility.yul\":8465:8466   */\n              0x00\n                /* \"#utility.yul\":8458:8473   */\n              revert\n                /* \"#utility.yul\":8485:8665   */\n            tag_225:\n                /* \"#utility.yul\":8533:8610   */\n              0x4e487b7100000000000000000000000000000000000000000000000000000000\n                /* \"#utility.yul\":8530:8531   */\n              0x00\n                /* \"#utility.yul\":8523:8611   */\n              mstore\n                /* \"#utility.yul\":8630:8634   */\n              0x22\n                /* \"#utility.yul\":8627:8628   */\n              0x04\n                /* \"#utility.yul\":8620:8635   */\n              mstore\n                /* \"#utility.yul\":8654:8658   */\n              0x24\n                /* \"#utility.yul\":8651:8652   */\n              0x00\n                /* \"#utility.yul\":8644:8659   */\n              revert\n                /* \"#utility.yul\":8671:8851   */\n            tag_199:\n                /* \"#utility.yul\":8719:8796   */\n              0x4e487b7100000000000000000000000000000000000000000000000000000000\n                /* \"#utility.yul\":8716:8717   */\n              0x00\n                /* \"#utility.yul\":8709:8797   */\n              mstore\n                /* \"#utility.yul\":8816:8820   */\n              0x41\n                /* \"#utility.yul\":8813:8814   */\n              0x04\n                /* \"#utility.yul\":8806:8821   */\n              mstore\n                /* \"#utility.yul\":8840:8844   */\n              0x24\n                /* \"#utility.yul\":8837:8838   */\n              0x00\n                /* \"#utility.yul\":8830:8845   */\n              revert\n                /* \"#utility.yul\":8857:8974   */\n            tag_126:\n                /* \"#utility.yul\":8966:8967   */\n              0x00\n                /* \"#utility.yul\":8963:8964   */\n              dup1\n                /* \"#utility.yul\":8956:8968   */\n              revert\n                /* \"#utility.yul\":8980:9097   */\n            tag_115:\n                /* \"#utility.yul\":9089:9090   */\n              0x00\n                /* \"#utility.yul\":9086:9087   */\n              dup1\n                /* \"#utility.yul\":9079:9091   */\n              revert\n                /* \"#utility.yul\":9103:9220   */\n            tag_142:\n                /* \"#utility.yul\":9212:9213   */\n              0x00\n                /* \"#utility.yul\":9209:9210   */\n              dup1\n                /* \"#utility.yul\":9202:9214   */\n              revert\n                /* \"#utility.yul\":9226:9343   */\n            tag_135:\n                /* \"#utility.yul\":9335:9336   */\n              0x00\n                /* \"#utility.yul\":9332:9333   */\n              dup1\n                /* \"#utility.yul\":9325:9337   */\n              revert\n                /* \"#utility.yul\":9349:9451   */\n            tag_167:\n                /* \"#utility.yul\":9390:9396   */\n              0x00\n                /* \"#utility.yul\":9441:9443   */\n              0x1f\n                /* \"#utility.yul\":9437:9444   */\n              not\n                /* \"#utility.yul\":9432:9434   */\n              0x1f\n                /* \"#utility.yul\":9425:9430   */\n              dup4\n                /* \"#utility.yul\":9421:9435   */\n              add\n                /* \"#utility.yul\":9417:9445   */\n              and\n                /* \"#utility.yul\":9407:9445   */\n              swap1\n              pop\n                /* \"#utility.yul\":9349:9451   */\n              swap2\n              swap1\n              pop\n              jump\t// out\n                /* \"#utility.yul\":9457:9579   */\n            tag_121:\n                /* \"#utility.yul\":9530:9554   */\n              tag_245\n                /* \"#utility.yul\":9548:9553   */\n              dup2\n                /* \"#utility.yul\":9530:9554   */\n              tag_153\n              jump\t// in\n            tag_245:\n                /* \"#utility.yul\":9523:9528   */\n              dup2\n                /* \"#utility.yul\":9520:9555   */\n              eq\n                /* \"#utility.yul\":9510:9573   */\n              tag_246\n              jumpi\n                /* \"#utility.yul\":9569:9570   */\n              0x00\n                /* \"#utility.yul\":9566:9567   */\n              dup1\n                /* \"#utility.yul\":9559:9571   */\n              revert\n                /* \"#utility.yul\":9510:9573   */\n            tag_246:\n                /* \"#utility.yul\":9457:9579   */\n              pop\n              jump\t// out\n                /* \"#utility.yul\":9585:9707   */\n            tag_131:\n                /* \"#utility.yul\":9658:9682   */\n              tag_248\n                /* \"#utility.yul\":9676:9681   */\n              dup2\n                /* \"#utility.yul\":9658:9682   */\n              tag_171\n              jump\t// in\n            tag_248:\n                /* \"#utility.yul\":9651:9656   */\n              dup2\n                /* \"#utility.yul\":9648:9683   */\n              eq\n                /* \"#utility.yul\":9638:9701   */\n              tag_249\n              jumpi\n                /* \"#utility.yul\":9697:9698   */\n              0x00\n                /* \"#utility.yul\":9694:9695   */\n              dup1\n                /* \"#utility.yul\":9687:9699   */\n              revert\n                /* \"#utility.yul\":9638:9701   */\n            tag_249:\n                /* \"#utility.yul\":9585:9707   */\n              pop\n              jump\t// out\n\n            auxdata: 0xa26469706673582212200f682239619fc6b1a25f617a0c81ccc2d184204b10b10bdf735c4a72856b7f6464736f6c63430008070033\n        }\n    }\n\n    auxdata: 0xa2646970667358221220f09aa1d4241218a871023d2c92c316cd5513e0334e2df5052ddcc068d7a7cd3f64736f6c63430008070033\n}\n","bytecode":{"linkReferences":{},"object":"608060405234801561001057600080fd5b50611461806100206000396000f3fe608060405234801561001057600080fd5b50600436106100415760003560e01c8063339d50a5146100465780634acb9d4f14610076578063a3303a7514610094575b600080fd5b610060600480360381019061005b9190610240565b6100b0565b60405161006d9190610310565b60405180910390f35b61007e6100ef565b60405161008b919061032b565b60405180910390f35b6100ae60048036038101906100a99190610240565b61017d565b005b600081815481106100c057600080fd5b906000526020600020016000915054906101000a900473ffffffffffffffffffffffffffffffffffffffff1681565b6060600080548060200260200160405190810160405280929190818152602001828054801561017357602002820191906000526020600020905b8160009054906101000a900473ffffffffffffffffffffffffffffffffffffffff1673ffffffffffffffffffffffffffffffffffffffff1681526020019060010190808311610129575b5050505050905090565b6000813360405161018d9061021e565b61019892919061034d565b604051809103906000f0801580156101b4573d6000803e3d6000fd5b5090506000819080600181540180825580915050600190039060005260206000200160009091909190916101000a81548173ffffffffffffffffffffffffffffffffffffffff021916908373ffffffffffffffffffffffffffffffffffffffff1602179055505050565b6110248061040883390190565b60008135905061023a816103f0565b92915050565b600060208284031215610256576102556103eb565b5b60006102648482850161022b565b91505092915050565b60006102798383610285565b60208301905092915050565b61028e816103af565b82525050565b61029d816103af565b82525050565b60006102ae82610386565b6102b8818561039e565b93506102c383610376565b8060005b838110156102f45781516102db888261026d565b97506102e683610391565b9250506001810190506102c7565b5085935050505092915050565b61030a816103e1565b82525050565b60006020820190506103256000830184610294565b92915050565b6000602082019050818103600083015261034581846102a3565b905092915050565b60006040820190506103626000830185610301565b61036f6020830184610294565b9392505050565b6000819050602082019050919050565b600081519050919050565b6000602082019050919050565b600082825260208201905092915050565b60006103ba826103c1565b9050919050565b600073ffffffffffffffffffffffffffffffffffffffff82169050919050565b6000819050919050565b600080fd5b6103f9816103e1565b811461040457600080fd5b5056fe60806040523480156200001157600080fd5b5060405162001024380380620010248339818101604052810190620000379190620000b5565b80600260006101000a81548173ffffffffffffffffffffffffffffffffffffffff021916908373ffffffffffffffffffffffffffffffffffffffff16021790555081600381905550505062000173565b60008151905062000098816200013f565b92915050565b600081519050620000af8162000159565b92915050565b60008060408385031215620000cf57620000ce6200013a565b5b6000620000df858286016200009e565b9250506020620000f28582860162000087565b9150509250929050565b6000620001098262000110565b9050919050565b600073ffffffffffffffffffffffffffffffffffffffff82169050919050565b6000819050919050565b600080fd5b6200014a81620000fc565b81146200015657600080fd5b50565b620001648162000130565b81146200017057600080fd5b50565b610ea180620001836000396000f3fe60806040526004361061009c5760003560e01c806382fde0931161006457806382fde093146101a25780638a9cfd55146101cd578063937e09b1146101f6578063d7bb99ba14610221578063d7d1bbdb1461022b578063fbfa4b7f146102545761009c565b806303441006146100a15780630a144391146100ca5780634051ddac14610107578063481c6a751461013657806381d12c5814610161575b600080fd5b3480156100ad57600080fd5b506100c860048036038101906100c391906109f2565b61027f565b005b3480156100d657600080fd5b506100f160048036038101906100ec9190610956565b6103ba565b6040516100fe9190610aa0565b60405180910390f35b34801561011357600080fd5b5061011c6103da565b60405161012d959493929190610b30565b60405180910390f35b34801561014257600080fd5b5061014b610420565b6040516101589190610a85565b60405180910390f35b34801561016d57600080fd5b50610188600480360381019061018391906109f2565b610446565b604051610199959493929190610abb565b60405180910390f35b3480156101ae57600080fd5b506101b7610531565b6040516101c49190610b15565b60405180910390f35b3480156101d957600080fd5b506101f460048036038101906101ef9190610983565b610537565b005b34801561020257600080fd5b5061020b61064f565b6040516102189190610b15565b60405180910390f35b610229610655565b005b34801561023757600080fd5b50610252600480360381019061024d91906109f2565b6106d5565b005b34801561026057600080fd5b50610269610813565b6040516102769190610b15565b60405180910390f35b600260009054906101000a900473ffffffffffffffffffffffffffffffffffffffff1673ffffffffffffffffffffffffffffffffffffffff163373ffffffffffffffffffffffffffffffffffffffff16146102d957600080fd5b600060016000838152602001908152602001600020905060026005546102ff9190610bf5565b81600301541161030e57600080fd5b8060020160149054906101000a900460ff161561032a57600080fd5b8060020160009054906101000a900473ffffffffffffffffffffffffffffffffffffffff1673ffffffffffffffffffffffffffffffffffffffff166108fc82600101549081150290604051600060405180830381858888f19350505050158015610398573d6000803e3d6000fd5b5060018160020160146101000a81548160ff0219169083151502179055505050565b60046020528060005260406000206000915054906101000a900460ff1681565b600080600080600060035447600054600554600260009054906101000a900473ffffffffffffffffffffffffffffffffffffffff16945094509450945094509091929394565b600260009054906101000a900473ffffffffffffffffffffffffffffffffffffffff1681565b600160205280600052604060002060009150905080600001805461046990610cb0565b80601f016020809104026020016040519081016040528092919081815260200182805461049590610cb0565b80156104e25780601f106104b7576101008083540402835291602001916104e2565b820191906000526020600020905b8154815290600101906020018083116104c557829003601f168201915b5050505050908060010154908060020160009054906101000a900473ffffffffffffffffffffffffffffffffffffffff16908060020160149054906101000a900460ff16908060030154905085565b60055481565b600260009054906101000a900473ffffffffffffffffffffffffffffffffffffffff1673ffffffffffffffffffffffffffffffffffffffff163373ffffffffffffffffffffffffffffffffffffffff161461059157600080fd5b6000600160008060008154809291906105a990610d13565b9190505581526020019081526020016000209050838160000190805190602001906105d5929190610819565b50828160010181905550818160020160006101000a81548173ffffffffffffffffffffffffffffffffffffffff021916908373ffffffffffffffffffffffffffffffffffffffff16021790555060008160020160146101000a81548160ff0219169083151502179055506000816003018190555050505050565b60035481565b600354341161066357600080fd5b6001600460003373ffffffffffffffffffffffffffffffffffffffff1673ffffffffffffffffffffffffffffffffffffffff16815260200190815260200160002060006101000a81548160ff021916908315150217905550600560008154809291906106ce90610d13565b9190505550565b600460003373ffffffffffffffffffffffffffffffffffffffff1673ffffffffffffffffffffffffffffffffffffffff16815260200190815260200160002060009054906101000a900460ff1661072b57600080fd5b60006001600083815260200190815260200160002090508060040160003373ffffffffffffffffffffffffffffffffffffffff1673ffffffffffffffffffffffffffffffffffffffff16815260200190815260200160002060009054906101000a900460ff161561079b57600080fd5b60018160040160003373ffffffffffffffffffffffffffffffffffffffff1673ffffffffffffffffffffffffffffffffffffffff16815260200190815260200160002060006101000a81548160ff02191690831515021790555080600301600081548092919061080a90610d13565b91905055505050565b60005481565b82805461082590610cb0565b90600052602060002090601f016020900481019282610847576000855561088e565b82601f1061086057805160ff191683800117855561088e565b8280016001018555821561088e579182015b8281111561088d578251825591602001919060010190610872565b5b50905061089b919061089f565b5090565b5b808211156108b85760008160009055506001016108a0565b5090565b60006108cf6108ca84610ba8565b610b83565b9050828152602081018484840111156108eb576108ea610e1d565b5b6108f6848285610c6e565b509392505050565b60008135905061090d81610e3d565b92915050565b600082601f83011261092857610927610e18565b5b81356109388482602086016108bc565b91505092915050565b60008135905061095081610e54565b92915050565b60006020828403121561096c5761096b610e27565b5b600061097a848285016108fe565b91505092915050565b60008060006060848603121561099c5761099b610e27565b5b600084013567ffffffffffffffff8111156109ba576109b9610e22565b5b6109c686828701610913565b93505060206109d786828701610941565b92505060406109e8868287016108fe565b9150509250925092565b600060208284031215610a0857610a07610e27565b5b6000610a1684828501610941565b91505092915050565b610a2881610c26565b82525050565b610a3781610c38565b82525050565b6000610a4882610bd9565b610a528185610be4565b9350610a62818560208601610c7d565b610a6b81610e2c565b840191505092915050565b610a7f81610c64565b82525050565b6000602082019050610a9a6000830184610a1f565b92915050565b6000602082019050610ab56000830184610a2e565b92915050565b600060a0820190508181036000830152610ad58188610a3d565b9050610ae46020830187610a76565b610af16040830186610a1f565b610afe6060830185610a2e565b610b0b6080830184610a76565b9695505050505050565b6000602082019050610b2a6000830184610a76565b92915050565b600060a082019050610b456000830188610a76565b610b526020830187610a76565b610b5f6040830186610a76565b610b6c6060830185610a76565b610b796080830184610a1f565b9695505050505050565b6000610b8d610b9e565b9050610b998282610ce2565b919050565b6000604051905090565b600067ffffffffffffffff821115610bc357610bc2610de9565b5b610bcc82610e2c565b9050602081019050919050565b600081519050919050565b600082825260208201905092915050565b6000610c0082610c64565b9150610c0b83610c64565b925082610c1b57610c1a610d8b565b5b828204905092915050565b6000610c3182610c44565b9050919050565b60008115159050919050565b600073ffffffffffffffffffffffffffffffffffffffff82169050919050565b6000819050919050565b82818337600083830152505050565b60005b83811015610c9b578082015181840152602081019050610c80565b83811115610caa576000848401525b50505050565b60006002820490506001821680610cc857607f821691505b60208210811415610cdc57610cdb610dba565b5b50919050565b610ceb82610e2c565b810181811067ffffffffffffffff82111715610d0a57610d09610de9565b5b80604052505050565b6000610d1e82610c64565b91507fffffffffffffffffffffffffffffffffffffffffffffffffffffffffffffffff821415610d5157610d50610d5c565b5b600182019050919050565b7f4e487b7100000000000000000000000000000000000000000000000000000000600052601160045260246000fd5b7f4e487b7100000000000000000000000000000000000000000000000000000000600052601260045260246000fd5b7f4e487b7100000000000000000000000000000000000000000000000000000000600052602260045260246000fd5b7f4e487b7100000000000000000000000000000000000000000000000000000000600052604160045260246000fd5b600080fd5b600080fd5b600080fd5b600080fd5b6000601f19601f8301169050919050565b610e4681610c26565b8114610e5157600080fd5b50565b610e5d81610c64565b8114610e6857600080fd5b5056fea26469706673582212200f682239619fc6b1a25f617a0c81ccc2d184204b10b10bdf735c4a72856b7f6464736f6c63430008070033a2646970667358221220f09aa1d4241218a871023d2c92c316cd5513e0334e2df5052ddcc068d7a7cd3f64736f6c63430008070033","opcodes":"PUSH1 0x80 PUSH1 0x40 MSTORE CALLVALUE DUP1 ISZERO PUSH2 0x10 JUMPI PUSH1 0x0 DUP1 REVERT JUMPDEST POP PUSH2 0x1461 DUP1 PUSH2 0x20 PUSH1 0x0 CODECOPY PUSH1 0x0 RETURN INVALID PUSH1 0x80 PUSH1 0x40 MSTORE CALLVALUE DUP1 ISZERO PUSH2 0x10 JUMPI PUSH1 0x0 DUP1 REVERT JUMPDEST POP PUSH1 0x4 CALLDATASIZE LT PUSH2 0x41 JUMPI PUSH1 0x0 CALLDATALOAD PUSH1 0xE0 SHR DUP1 PUSH4 0x339D50A5 EQ PUSH2 0x46 JUMPI DUP1 PUSH4 0x4ACB9D4F EQ PUSH2 0x76 JUMPI DUP1 PUSH4 0xA3303A75 EQ PUSH2 0x94 JUMPI JUMPDEST PUSH1 0x0 DUP1 REVERT JUMPDEST PUSH2 0x60 PUSH1 0x4 DUP1 CALLDATASIZE SUB DUP2 ADD SWAP1 PUSH2 0x5B SWAP2 SWAP1 PUSH2 0x240 JUMP JUMPDEST PUSH2 0xB0 JUMP JUMPDEST PUSH1 0x40 MLOAD PUSH2 0x6D SWAP2 SWAP1 PUSH2 0x310 JUMP JUMPDEST PUSH1 0x40 MLOAD DUP1 SWAP2 SUB SWAP1 RETURN JUMPDEST PUSH2 0x7E PUSH2 0xEF JUMP JUMPDEST PUSH1 0x40 MLOAD PUSH2 0x8B SWAP2 SWAP1 PUSH2 0x32B JUMP JUMPDEST PUSH1 0x40 MLOAD DUP1 SWAP2 SUB SWAP1 RETURN JUMPDEST PUSH2 0xAE PUSH1 0x4 DUP1 CALLDATASIZE SUB DUP2 ADD SWAP1 PUSH2 0xA9 SWAP2 SWAP1 PUSH2 0x240 JUMP JUMPDEST PUSH2 0x17D JUMP JUMPDEST STOP JUMPDEST PUSH1 0x0 DUP2 DUP2 SLOAD DUP2 LT PUSH2 0xC0 JUMPI PUSH1 0x0 DUP1 REVERT JUMPDEST SWAP1 PUSH1 0x0 MSTORE PUSH1 0x20 PUSH1 0x0 KECCAK256 ADD PUSH1 0x0 SWAP2 POP SLOAD SWAP1 PUSH2 0x100 EXP SWAP1 DIV PUSH20 0xFFFFFFFFFFFFFFFFFFFFFFFFFFFFFFFFFFFFFFFF AND DUP2 JUMP JUMPDEST PUSH1 0x60 PUSH1 0x0 DUP1 SLOAD DUP1 PUSH1 0x20 MUL PUSH1 0x20 ADD PUSH1 0x40 MLOAD SWAP1 DUP2 ADD PUSH1 0x40 MSTORE DUP1 SWAP3 SWAP2 SWAP1 DUP2 DUP2 MSTORE PUSH1 0x20 ADD DUP3 DUP1 SLOAD DUP1 ISZERO PUSH2 0x173 JUMPI PUSH1 0x20 MUL DUP3 ADD SWAP2 SWAP1 PUSH1 0x0 MSTORE PUSH1 0x20 PUSH1 0x0 KECCAK256 SWAP1 JUMPDEST DUP2 PUSH1 0x0 SWAP1 SLOAD SWAP1 PUSH2 0x100 EXP SWAP1 DIV PUSH20 0xFFFFFFFFFFFFFFFFFFFFFFFFFFFFFFFFFFFFFFFF AND PUSH20 0xFFFFFFFFFFFFFFFFFFFFFFFFFFFFFFFFFFFFFFFF AND DUP2 MSTORE PUSH1 0x20 ADD SWAP1 PUSH1 0x1 ADD SWAP1 DUP1 DUP4 GT PUSH2 0x129 JUMPI JUMPDEST POP POP POP POP POP SWAP1 POP SWAP1 JUMP JUMPDEST PUSH1 0x0 DUP2 CALLER PUSH1 0x40 MLOAD PUSH2 0x18D SWAP1 PUSH2 0x21E JUMP JUMPDEST PUSH2 0x198 SWAP3 SWAP2 SWAP1 PUSH2 0x34D JUMP JUMPDEST PUSH1 0x40 MLOAD DUP1 SWAP2 SUB SWAP1 PUSH1 0x0 CREATE DUP1 ISZERO DUP1 ISZERO PUSH2 0x1B4 JUMPI RETURNDATASIZE PUSH1 0x0 DUP1 RETURNDATACOPY RETURNDATASIZE PUSH1 0x0 REVERT JUMPDEST POP SWAP1 POP PUSH1 0x0 DUP2 SWAP1 DUP1 PUSH1 0x1 DUP2 SLOAD ADD DUP1 DUP3 SSTORE DUP1 SWAP2 POP POP PUSH1 0x1 SWAP1 SUB SWAP1 PUSH1 0x0 MSTORE PUSH1 0x20 PUSH1 0x0 KECCAK256 ADD PUSH1 0x0 SWAP1 SWAP2 SWAP1 SWAP2 SWAP1 SWAP2 PUSH2 0x100 EXP DUP2 SLOAD DUP2 PUSH20 0xFFFFFFFFFFFFFFFFFFFFFFFFFFFFFFFFFFFFFFFF MUL NOT AND SWAP1 DUP4 PUSH20 0xFFFFFFFFFFFFFFFFFFFFFFFFFFFFFFFFFFFFFFFF AND MUL OR SWAP1 SSTORE POP POP POP JUMP JUMPDEST PUSH2 0x1024 DUP1 PUSH2 0x408 DUP4 CODECOPY ADD SWAP1 JUMP JUMPDEST PUSH1 0x0 DUP2 CALLDATALOAD SWAP1 POP PUSH2 0x23A DUP2 PUSH2 0x3F0 JUMP JUMPDEST SWAP3 SWAP2 POP POP JUMP JUMPDEST PUSH1 0x0 PUSH1 0x20 DUP3 DUP5 SUB SLT ISZERO PUSH2 0x256 JUMPI PUSH2 0x255 PUSH2 0x3EB JUMP JUMPDEST JUMPDEST PUSH1 0x0 PUSH2 0x264 DUP5 DUP3 DUP6 ADD PUSH2 0x22B JUMP JUMPDEST SWAP2 POP POP SWAP3 SWAP2 POP POP JUMP JUMPDEST PUSH1 0x0 PUSH2 0x279 DUP4 DUP4 PUSH2 0x285 JUMP JUMPDEST PUSH1 0x20 DUP4 ADD SWAP1 POP SWAP3 SWAP2 POP POP JUMP JUMPDEST PUSH2 0x28E DUP2 PUSH2 0x3AF JUMP JUMPDEST DUP3 MSTORE POP POP JUMP JUMPDEST PUSH2 0x29D DUP2 PUSH2 0x3AF JUMP JUMPDEST DUP3 MSTORE POP POP JUMP JUMPDEST PUSH1 0x0 PUSH2 0x2AE DUP3 PUSH2 0x386 JUMP JUMPDEST PUSH2 0x2B8 DUP2 DUP6 PUSH2 0x39E JUMP JUMPDEST SWAP4 POP PUSH2 0x2C3 DUP4 PUSH2 0x376 JUMP JUMPDEST DUP1 PUSH1 0x0 JUMPDEST DUP4 DUP2 LT ISZERO PUSH2 0x2F4 JUMPI DUP2 MLOAD PUSH2 0x2DB DUP9 DUP3 PUSH2 0x26D JUMP JUMPDEST SWAP8 POP PUSH2 0x2E6 DUP4 PUSH2 0x391 JUMP JUMPDEST SWAP3 POP POP PUSH1 0x1 DUP2 ADD SWAP1 POP PUSH2 0x2C7 JUMP JUMPDEST POP DUP6 SWAP4 POP POP POP POP SWAP3 SWAP2 POP POP JUMP JUMPDEST PUSH2 0x30A DUP2 PUSH2 0x3E1 JUMP JUMPDEST DUP3 MSTORE POP POP JUMP JUMPDEST PUSH1 0x0 PUSH1 0x20 DUP3 ADD SWAP1 POP PUSH2 0x325 PUSH1 0x0 DUP4 ADD DUP5 PUSH2 0x294 JUMP JUMPDEST SWAP3 SWAP2 POP POP JUMP JUMPDEST PUSH1 0x0 PUSH1 0x20 DUP3 ADD SWAP1 POP DUP2 DUP2 SUB PUSH1 0x0 DUP4 ADD MSTORE PUSH2 0x345 DUP2 DUP5 PUSH2 0x2A3 JUMP JUMPDEST SWAP1 POP SWAP3 SWAP2 POP POP JUMP JUMPDEST PUSH1 0x0 PUSH1 0x40 DUP3 ADD SWAP1 POP PUSH2 0x362 PUSH1 0x0 DUP4 ADD DUP6 PUSH2 0x301 JUMP JUMPDEST PUSH2 0x36F PUSH1 0x20 DUP4 ADD DUP5 PUSH2 0x294 JUMP JUMPDEST SWAP4 SWAP3 POP POP POP JUMP JUMPDEST PUSH1 0x0 DUP2 SWAP1 POP PUSH1 0x20 DUP3 ADD SWAP1 POP SWAP2 SWAP1 POP JUMP JUMPDEST PUSH1 0x0 DUP2 MLOAD SWAP1 POP SWAP2 SWAP1 POP JUMP JUMPDEST PUSH1 0x0 PUSH1 0x20 DUP3 ADD SWAP1 POP SWAP2 SWAP1 POP JUMP JUMPDEST PUSH1 0x0 DUP3 DUP3 MSTORE PUSH1 0x20 DUP3 ADD SWAP1 POP SWAP3 SWAP2 POP POP JUMP JUMPDEST PUSH1 0x0 PUSH2 0x3BA DUP3 PUSH2 0x3C1 JUMP JUMPDEST SWAP1 POP SWAP2 SWAP1 POP JUMP JUMPDEST PUSH1 0x0 PUSH20 0xFFFFFFFFFFFFFFFFFFFFFFFFFFFFFFFFFFFFFFFF DUP3 AND SWAP1 POP SWAP2 SWAP1 POP JUMP JUMPDEST PUSH1 0x0 DUP2 SWAP1 POP SWAP2 SWAP1 POP JUMP JUMPDEST PUSH1 0x0 DUP1 REVERT JUMPDEST PUSH2 0x3F9 DUP2 PUSH2 0x3E1 JUMP JUMPDEST DUP2 EQ PUSH2 0x404 JUMPI PUSH1 0x0 DUP1 REVERT JUMPDEST POP JUMP INVALID PUSH1 0x80 PUSH1 0x40 MSTORE CALLVALUE DUP1 ISZERO PUSH3 0x11 JUMPI PUSH1 0x0 DUP1 REVERT JUMPDEST POP PUSH1 0x40 MLOAD PUSH3 0x1024 CODESIZE SUB DUP1 PUSH3 0x1024 DUP4 CODECOPY DUP2 DUP2 ADD PUSH1 0x40 MSTORE DUP2 ADD SWAP1 PUSH3 0x37 SWAP2 SWAP1 PUSH3 0xB5 JUMP JUMPDEST DUP1 PUSH1 0x2 PUSH1 0x0 PUSH2 0x100 EXP DUP2 SLOAD DUP2 PUSH20 0xFFFFFFFFFFFFFFFFFFFFFFFFFFFFFFFFFFFFFFFF MUL NOT AND SWAP1 DUP4 PUSH20 0xFFFFFFFFFFFFFFFFFFFFFFFFFFFFFFFFFFFFFFFF AND MUL OR SWAP1 SSTORE POP DUP2 PUSH1 0x3 DUP2 SWAP1 SSTORE POP POP POP PUSH3 0x173 JUMP JUMPDEST PUSH1 0x0 DUP2 MLOAD SWAP1 POP PUSH3 0x98 DUP2 PUSH3 0x13F JUMP JUMPDEST SWAP3 SWAP2 POP POP JUMP JUMPDEST PUSH1 0x0 DUP2 MLOAD SWAP1 POP PUSH3 0xAF DUP2 PUSH3 0x159 JUMP JUMPDEST SWAP3 SWAP2 POP POP JUMP JUMPDEST PUSH1 0x0 DUP1 PUSH1 0x40 DUP4 DUP6 SUB SLT ISZERO PUSH3 0xCF JUMPI PUSH3 0xCE PUSH3 0x13A JUMP JUMPDEST JUMPDEST PUSH1 0x0 PUSH3 0xDF DUP6 DUP3 DUP7 ADD PUSH3 0x9E JUMP JUMPDEST SWAP3 POP POP PUSH1 0x20 PUSH3 0xF2 DUP6 DUP3 DUP7 ADD PUSH3 0x87 JUMP JUMPDEST SWAP2 POP POP SWAP3 POP SWAP3 SWAP1 POP JUMP JUMPDEST PUSH1 0x0 PUSH3 0x109 DUP3 PUSH3 0x110 JUMP JUMPDEST SWAP1 POP SWAP2 SWAP1 POP JUMP JUMPDEST PUSH1 0x0 PUSH20 0xFFFFFFFFFFFFFFFFFFFFFFFFFFFFFFFFFFFFFFFF DUP3 AND SWAP1 POP SWAP2 SWAP1 POP JUMP JUMPDEST PUSH1 0x0 DUP2 SWAP1 POP SWAP2 SWAP1 POP JUMP JUMPDEST PUSH1 0x0 DUP1 REVERT JUMPDEST PUSH3 0x14A DUP2 PUSH3 0xFC JUMP JUMPDEST DUP2 EQ PUSH3 0x156 JUMPI PUSH1 0x0 DUP1 REVERT JUMPDEST POP JUMP JUMPDEST PUSH3 0x164 DUP2 PUSH3 0x130 JUMP JUMPDEST DUP2 EQ PUSH3 0x170 JUMPI PUSH1 0x0 DUP1 REVERT JUMPDEST POP JUMP JUMPDEST PUSH2 0xEA1 DUP1 PUSH3 0x183 PUSH1 0x0 CODECOPY PUSH1 0x0 RETURN INVALID PUSH1 0x80 PUSH1 0x40 MSTORE PUSH1 0x4 CALLDATASIZE LT PUSH2 0x9C JUMPI PUSH1 0x0 CALLDATALOAD PUSH1 0xE0 SHR DUP1 PUSH4 0x82FDE093 GT PUSH2 0x64 JUMPI DUP1 PUSH4 0x82FDE093 EQ PUSH2 0x1A2 JUMPI DUP1 PUSH4 0x8A9CFD55 EQ PUSH2 0x1CD JUMPI DUP1 PUSH4 0x937E09B1 EQ PUSH2 0x1F6 JUMPI DUP1 PUSH4 0xD7BB99BA EQ PUSH2 0x221 JUMPI DUP1 PUSH4 0xD7D1BBDB EQ PUSH2 0x22B JUMPI DUP1 PUSH4 0xFBFA4B7F EQ PUSH2 0x254 JUMPI PUSH2 0x9C JUMP JUMPDEST DUP1 PUSH4 0x3441006 EQ PUSH2 0xA1 JUMPI DUP1 PUSH4 0xA144391 EQ PUSH2 0xCA JUMPI DUP1 PUSH4 0x4051DDAC EQ PUSH2 0x107 JUMPI DUP1 PUSH4 0x481C6A75 EQ PUSH2 0x136 JUMPI DUP1 PUSH4 0x81D12C58 EQ PUSH2 0x161 JUMPI JUMPDEST PUSH1 0x0 DUP1 REVERT JUMPDEST CALLVALUE DUP1 ISZERO PUSH2 0xAD JUMPI PUSH1 0x0 DUP1 REVERT JUMPDEST POP PUSH2 0xC8 PUSH1 0x4 DUP1 CALLDATASIZE SUB DUP2 ADD SWAP1 PUSH2 0xC3 SWAP2 SWAP1 PUSH2 0x9F2 JUMP JUMPDEST PUSH2 0x27F JUMP JUMPDEST STOP JUMPDEST CALLVALUE DUP1 ISZERO PUSH2 0xD6 JUMPI PUSH1 0x0 DUP1 REVERT JUMPDEST POP PUSH2 0xF1 PUSH1 0x4 DUP1 CALLDATASIZE SUB DUP2 ADD SWAP1 PUSH2 0xEC SWAP2 SWAP1 PUSH2 0x956 JUMP JUMPDEST PUSH2 0x3BA JUMP JUMPDEST PUSH1 0x40 MLOAD PUSH2 0xFE SWAP2 SWAP1 PUSH2 0xAA0 JUMP JUMPDEST PUSH1 0x40 MLOAD DUP1 SWAP2 SUB SWAP1 RETURN JUMPDEST CALLVALUE DUP1 ISZERO PUSH2 0x113 JUMPI PUSH1 0x0 DUP1 REVERT JUMPDEST POP PUSH2 0x11C PUSH2 0x3DA JUMP JUMPDEST PUSH1 0x40 MLOAD PUSH2 0x12D SWAP6 SWAP5 SWAP4 SWAP3 SWAP2 SWAP1 PUSH2 0xB30 JUMP JUMPDEST PUSH1 0x40 MLOAD DUP1 SWAP2 SUB SWAP1 RETURN JUMPDEST CALLVALUE DUP1 ISZERO PUSH2 0x142 JUMPI PUSH1 0x0 DUP1 REVERT JUMPDEST POP PUSH2 0x14B PUSH2 0x420 JUMP JUMPDEST PUSH1 0x40 MLOAD PUSH2 0x158 SWAP2 SWAP1 PUSH2 0xA85 JUMP JUMPDEST PUSH1 0x40 MLOAD DUP1 SWAP2 SUB SWAP1 RETURN JUMPDEST CALLVALUE DUP1 ISZERO PUSH2 0x16D JUMPI PUSH1 0x0 DUP1 REVERT JUMPDEST POP PUSH2 0x188 PUSH1 0x4 DUP1 CALLDATASIZE SUB DUP2 ADD SWAP1 PUSH2 0x183 SWAP2 SWAP1 PUSH2 0x9F2 JUMP JUMPDEST PUSH2 0x446 JUMP JUMPDEST PUSH1 0x40 MLOAD PUSH2 0x199 SWAP6 SWAP5 SWAP4 SWAP3 SWAP2 SWAP1 PUSH2 0xABB JUMP JUMPDEST PUSH1 0x40 MLOAD DUP1 SWAP2 SUB SWAP1 RETURN JUMPDEST CALLVALUE DUP1 ISZERO PUSH2 0x1AE JUMPI PUSH1 0x0 DUP1 REVERT JUMPDEST POP PUSH2 0x1B7 PUSH2 0x531 JUMP JUMPDEST PUSH1 0x40 MLOAD PUSH2 0x1C4 SWAP2 SWAP1 PUSH2 0xB15 JUMP JUMPDEST PUSH1 0x40 MLOAD DUP1 SWAP2 SUB SWAP1 RETURN JUMPDEST CALLVALUE DUP1 ISZERO PUSH2 0x1D9 JUMPI PUSH1 0x0 DUP1 REVERT JUMPDEST POP PUSH2 0x1F4 PUSH1 0x4 DUP1 CALLDATASIZE SUB DUP2 ADD SWAP1 PUSH2 0x1EF SWAP2 SWAP1 PUSH2 0x983 JUMP JUMPDEST PUSH2 0x537 JUMP JUMPDEST STOP JUMPDEST CALLVALUE DUP1 ISZERO PUSH2 0x202 JUMPI PUSH1 0x0 DUP1 REVERT JUMPDEST POP PUSH2 0x20B PUSH2 0x64F JUMP JUMPDEST PUSH1 0x40 MLOAD PUSH2 0x218 SWAP2 SWAP1 PUSH2 0xB15 JUMP JUMPDEST PUSH1 0x40 MLOAD DUP1 SWAP2 SUB SWAP1 RETURN JUMPDEST PUSH2 0x229 PUSH2 0x655 JUMP JUMPDEST STOP JUMPDEST CALLVALUE DUP1 ISZERO PUSH2 0x237 JUMPI PUSH1 0x0 DUP1 REVERT JUMPDEST POP PUSH2 0x252 PUSH1 0x4 DUP1 CALLDATASIZE SUB DUP2 ADD SWAP1 PUSH2 0x24D SWAP2 SWAP1 PUSH2 0x9F2 JUMP JUMPDEST PUSH2 0x6D5 JUMP JUMPDEST STOP JUMPDEST CALLVALUE DUP1 ISZERO PUSH2 0x260 JUMPI PUSH1 0x0 DUP1 REVERT JUMPDEST POP PUSH2 0x269 PUSH2 0x813 JUMP JUMPDEST PUSH1 0x40 MLOAD PUSH2 0x276 SWAP2 SWAP1 PUSH2 0xB15 JUMP JUMPDEST PUSH1 0x40 MLOAD DUP1 SWAP2 SUB SWAP1 RETURN JUMPDEST PUSH1 0x2 PUSH1 0x0 SWAP1 SLOAD SWAP1 PUSH2 0x100 EXP SWAP1 DIV PUSH20 0xFFFFFFFFFFFFFFFFFFFFFFFFFFFFFFFFFFFFFFFF AND PUSH20 0xFFFFFFFFFFFFFFFFFFFFFFFFFFFFFFFFFFFFFFFF AND CALLER PUSH20 0xFFFFFFFFFFFFFFFFFFFFFFFFFFFFFFFFFFFFFFFF AND EQ PUSH2 0x2D9 JUMPI PUSH1 0x0 DUP1 REVERT JUMPDEST PUSH1 0x0 PUSH1 0x1 PUSH1 0x0 DUP4 DUP2 MSTORE PUSH1 0x20 ADD SWAP1 DUP2 MSTORE PUSH1 0x20 ADD PUSH1 0x0 KECCAK256 SWAP1 POP PUSH1 0x2 PUSH1 0x5 SLOAD PUSH2 0x2FF SWAP2 SWAP1 PUSH2 0xBF5 JUMP JUMPDEST DUP2 PUSH1 0x3 ADD SLOAD GT PUSH2 0x30E JUMPI PUSH1 0x0 DUP1 REVERT JUMPDEST DUP1 PUSH1 0x2 ADD PUSH1 0x14 SWAP1 SLOAD SWAP1 PUSH2 0x100 EXP SWAP1 DIV PUSH1 0xFF AND ISZERO PUSH2 0x32A JUMPI PUSH1 0x0 DUP1 REVERT JUMPDEST DUP1 PUSH1 0x2 ADD PUSH1 0x0 SWAP1 SLOAD SWAP1 PUSH2 0x100 EXP SWAP1 DIV PUSH20 0xFFFFFFFFFFFFFFFFFFFFFFFFFFFFFFFFFFFFFFFF AND PUSH20 0xFFFFFFFFFFFFFFFFFFFFFFFFFFFFFFFFFFFFFFFF AND PUSH2 0x8FC DUP3 PUSH1 0x1 ADD SLOAD SWAP1 DUP2 ISZERO MUL SWAP1 PUSH1 0x40 MLOAD PUSH1 0x0 PUSH1 0x40 MLOAD DUP1 DUP4 SUB DUP2 DUP6 DUP9 DUP9 CALL SWAP4 POP POP POP POP ISZERO DUP1 ISZERO PUSH2 0x398 JUMPI RETURNDATASIZE PUSH1 0x0 DUP1 RETURNDATACOPY RETURNDATASIZE PUSH1 0x0 REVERT JUMPDEST POP PUSH1 0x1 DUP2 PUSH1 0x2 ADD PUSH1 0x14 PUSH2 0x100 EXP DUP2 SLOAD DUP2 PUSH1 0xFF MUL NOT AND SWAP1 DUP4 ISZERO ISZERO MUL OR SWAP1 SSTORE POP POP POP JUMP JUMPDEST PUSH1 0x4 PUSH1 0x20 MSTORE DUP1 PUSH1 0x0 MSTORE PUSH1 0x40 PUSH1 0x0 KECCAK256 PUSH1 0x0 SWAP2 POP SLOAD SWAP1 PUSH2 0x100 EXP SWAP1 DIV PUSH1 0xFF AND DUP2 JUMP JUMPDEST PUSH1 0x0 DUP1 PUSH1 0x0 DUP1 PUSH1 0x0 PUSH1 0x3 SLOAD SELFBALANCE PUSH1 0x0 SLOAD PUSH1 0x5 SLOAD PUSH1 0x2 PUSH1 0x0 SWAP1 SLOAD SWAP1 PUSH2 0x100 EXP SWAP1 DIV PUSH20 0xFFFFFFFFFFFFFFFFFFFFFFFFFFFFFFFFFFFFFFFF AND SWAP5 POP SWAP5 POP SWAP5 POP SWAP5 POP SWAP5 POP SWAP1 SWAP2 SWAP3 SWAP4 SWAP5 JUMP JUMPDEST PUSH1 0x2 PUSH1 0x0 SWAP1 SLOAD SWAP1 PUSH2 0x100 EXP SWAP1 DIV PUSH20 0xFFFFFFFFFFFFFFFFFFFFFFFFFFFFFFFFFFFFFFFF AND DUP2 JUMP JUMPDEST PUSH1 0x1 PUSH1 0x20 MSTORE DUP1 PUSH1 0x0 MSTORE PUSH1 0x40 PUSH1 0x0 KECCAK256 PUSH1 0x0 SWAP2 POP SWAP1 POP DUP1 PUSH1 0x0 ADD DUP1 SLOAD PUSH2 0x469 SWAP1 PUSH2 0xCB0 JUMP JUMPDEST DUP1 PUSH1 0x1F ADD PUSH1 0x20 DUP1 SWAP2 DIV MUL PUSH1 0x20 ADD PUSH1 0x40 MLOAD SWAP1 DUP2 ADD PUSH1 0x40 MSTORE DUP1 SWAP3 SWAP2 SWAP1 DUP2 DUP2 MSTORE PUSH1 0x20 ADD DUP3 DUP1 SLOAD PUSH2 0x495 SWAP1 PUSH2 0xCB0 JUMP JUMPDEST DUP1 ISZERO PUSH2 0x4E2 JUMPI DUP1 PUSH1 0x1F LT PUSH2 0x4B7 JUMPI PUSH2 0x100 DUP1 DUP4 SLOAD DIV MUL DUP4 MSTORE SWAP2 PUSH1 0x20 ADD SWAP2 PUSH2 0x4E2 JUMP JUMPDEST DUP3 ADD SWAP2 SWAP1 PUSH1 0x0 MSTORE PUSH1 0x20 PUSH1 0x0 KECCAK256 SWAP1 JUMPDEST DUP2 SLOAD DUP2 MSTORE SWAP1 PUSH1 0x1 ADD SWAP1 PUSH1 0x20 ADD DUP1 DUP4 GT PUSH2 0x4C5 JUMPI DUP3 SWAP1 SUB PUSH1 0x1F AND DUP3 ADD SWAP2 JUMPDEST POP POP POP POP POP SWAP1 DUP1 PUSH1 0x1 ADD SLOAD SWAP1 DUP1 PUSH1 0x2 ADD PUSH1 0x0 SWAP1 SLOAD SWAP1 PUSH2 0x100 EXP SWAP1 DIV PUSH20 0xFFFFFFFFFFFFFFFFFFFFFFFFFFFFFFFFFFFFFFFF AND SWAP1 DUP1 PUSH1 0x2 ADD PUSH1 0x14 SWAP1 SLOAD SWAP1 PUSH2 0x100 EXP SWAP1 DIV PUSH1 0xFF AND SWAP1 DUP1 PUSH1 0x3 ADD SLOAD SWAP1 POP DUP6 JUMP JUMPDEST PUSH1 0x5 SLOAD DUP2 JUMP JUMPDEST PUSH1 0x2 PUSH1 0x0 SWAP1 SLOAD SWAP1 PUSH2 0x100 EXP SWAP1 DIV PUSH20 0xFFFFFFFFFFFFFFFFFFFFFFFFFFFFFFFFFFFFFFFF AND PUSH20 0xFFFFFFFFFFFFFFFFFFFFFFFFFFFFFFFFFFFFFFFF AND CALLER PUSH20 0xFFFFFFFFFFFFFFFFFFFFFFFFFFFFFFFFFFFFFFFF AND EQ PUSH2 0x591 JUMPI PUSH1 0x0 DUP1 REVERT JUMPDEST PUSH1 0x0 PUSH1 0x1 PUSH1 0x0 DUP1 PUSH1 0x0 DUP2 SLOAD DUP1 SWAP3 SWAP2 SWAP1 PUSH2 0x5A9 SWAP1 PUSH2 0xD13 JUMP JUMPDEST SWAP2 SWAP1 POP SSTORE DUP2 MSTORE PUSH1 0x20 ADD SWAP1 DUP2 MSTORE PUSH1 0x20 ADD PUSH1 0x0 KECCAK256 SWAP1 POP DUP4 DUP2 PUSH1 0x0 ADD SWAP1 DUP1 MLOAD SWAP1 PUSH1 0x20 ADD SWAP1 PUSH2 0x5D5 SWAP3 SWAP2 SWAP1 PUSH2 0x819 JUMP JUMPDEST POP DUP3 DUP2 PUSH1 0x1 ADD DUP2 SWAP1 SSTORE POP DUP2 DUP2 PUSH1 0x2 ADD PUSH1 0x0 PUSH2 0x100 EXP DUP2 SLOAD DUP2 PUSH20 0xFFFFFFFFFFFFFFFFFFFFFFFFFFFFFFFFFFFFFFFF MUL NOT AND SWAP1 DUP4 PUSH20 0xFFFFFFFFFFFFFFFFFFFFFFFFFFFFFFFFFFFFFFFF AND MUL OR SWAP1 SSTORE POP PUSH1 0x0 DUP2 PUSH1 0x2 ADD PUSH1 0x14 PUSH2 0x100 EXP DUP2 SLOAD DUP2 PUSH1 0xFF MUL NOT AND SWAP1 DUP4 ISZERO ISZERO MUL OR SWAP1 SSTORE POP PUSH1 0x0 DUP2 PUSH1 0x3 ADD DUP2 SWAP1 SSTORE POP POP POP POP POP JUMP JUMPDEST PUSH1 0x3 SLOAD DUP2 JUMP JUMPDEST PUSH1 0x3 SLOAD CALLVALUE GT PUSH2 0x663 JUMPI PUSH1 0x0 DUP1 REVERT JUMPDEST PUSH1 0x1 PUSH1 0x4 PUSH1 0x0 CALLER PUSH20 0xFFFFFFFFFFFFFFFFFFFFFFFFFFFFFFFFFFFFFFFF AND PUSH20 0xFFFFFFFFFFFFFFFFFFFFFFFFFFFFFFFFFFFFFFFF AND DUP2 MSTORE PUSH1 0x20 ADD SWAP1 DUP2 MSTORE PUSH1 0x20 ADD PUSH1 0x0 KECCAK256 PUSH1 0x0 PUSH2 0x100 EXP DUP2 SLOAD DUP2 PUSH1 0xFF MUL NOT AND SWAP1 DUP4 ISZERO ISZERO MUL OR SWAP1 SSTORE POP PUSH1 0x5 PUSH1 0x0 DUP2 SLOAD DUP1 SWAP3 SWAP2 SWAP1 PUSH2 0x6CE SWAP1 PUSH2 0xD13 JUMP JUMPDEST SWAP2 SWAP1 POP SSTORE POP JUMP JUMPDEST PUSH1 0x4 PUSH1 0x0 CALLER PUSH20 0xFFFFFFFFFFFFFFFFFFFFFFFFFFFFFFFFFFFFFFFF AND PUSH20 0xFFFFFFFFFFFFFFFFFFFFFFFFFFFFFFFFFFFFFFFF AND DUP2 MSTORE PUSH1 0x20 ADD SWAP1 DUP2 MSTORE PUSH1 0x20 ADD PUSH1 0x0 KECCAK256 PUSH1 0x0 SWAP1 SLOAD SWAP1 PUSH2 0x100 EXP SWAP1 DIV PUSH1 0xFF AND PUSH2 0x72B JUMPI PUSH1 0x0 DUP1 REVERT JUMPDEST PUSH1 0x0 PUSH1 0x1 PUSH1 0x0 DUP4 DUP2 MSTORE PUSH1 0x20 ADD SWAP1 DUP2 MSTORE PUSH1 0x20 ADD PUSH1 0x0 KECCAK256 SWAP1 POP DUP1 PUSH1 0x4 ADD PUSH1 0x0 CALLER PUSH20 0xFFFFFFFFFFFFFFFFFFFFFFFFFFFFFFFFFFFFFFFF AND PUSH20 0xFFFFFFFFFFFFFFFFFFFFFFFFFFFFFFFFFFFFFFFF AND DUP2 MSTORE PUSH1 0x20 ADD SWAP1 DUP2 MSTORE PUSH1 0x20 ADD PUSH1 0x0 KECCAK256 PUSH1 0x0 SWAP1 SLOAD SWAP1 PUSH2 0x100 EXP SWAP1 DIV PUSH1 0xFF AND ISZERO PUSH2 0x79B JUMPI PUSH1 0x0 DUP1 REVERT JUMPDEST PUSH1 0x1 DUP2 PUSH1 0x4 ADD PUSH1 0x0 CALLER PUSH20 0xFFFFFFFFFFFFFFFFFFFFFFFFFFFFFFFFFFFFFFFF AND PUSH20 0xFFFFFFFFFFFFFFFFFFFFFFFFFFFFFFFFFFFFFFFF AND DUP2 MSTORE PUSH1 0x20 ADD SWAP1 DUP2 MSTORE PUSH1 0x20 ADD PUSH1 0x0 KECCAK256 PUSH1 0x0 PUSH2 0x100 EXP DUP2 SLOAD DUP2 PUSH1 0xFF MUL NOT AND SWAP1 DUP4 ISZERO ISZERO MUL OR SWAP1 SSTORE POP DUP1 PUSH1 0x3 ADD PUSH1 0x0 DUP2 SLOAD DUP1 SWAP3 SWAP2 SWAP1 PUSH2 0x80A SWAP1 PUSH2 0xD13 JUMP JUMPDEST SWAP2 SWAP1 POP SSTORE POP POP POP JUMP JUMPDEST PUSH1 0x0 SLOAD DUP2 JUMP JUMPDEST DUP3 DUP1 SLOAD PUSH2 0x825 SWAP1 PUSH2 0xCB0 JUMP JUMPDEST SWAP1 PUSH1 0x0 MSTORE PUSH1 0x20 PUSH1 0x0 KECCAK256 SWAP1 PUSH1 0x1F ADD PUSH1 0x20 SWAP1 DIV DUP2 ADD SWAP3 DUP3 PUSH2 0x847 JUMPI PUSH1 0x0 DUP6 SSTORE PUSH2 0x88E JUMP JUMPDEST DUP3 PUSH1 0x1F LT PUSH2 0x860 JUMPI DUP1 MLOAD PUSH1 0xFF NOT AND DUP4 DUP1 ADD OR DUP6 SSTORE PUSH2 0x88E JUMP JUMPDEST DUP3 DUP1 ADD PUSH1 0x1 ADD DUP6 SSTORE DUP3 ISZERO PUSH2 0x88E JUMPI SWAP2 DUP3 ADD JUMPDEST DUP3 DUP2 GT ISZERO PUSH2 0x88D JUMPI DUP3 MLOAD DUP3 SSTORE SWAP2 PUSH1 0x20 ADD SWAP2 SWAP1 PUSH1 0x1 ADD SWAP1 PUSH2 0x872 JUMP JUMPDEST JUMPDEST POP SWAP1 POP PUSH2 0x89B SWAP2 SWAP1 PUSH2 0x89F JUMP JUMPDEST POP SWAP1 JUMP JUMPDEST JUMPDEST DUP1 DUP3 GT ISZERO PUSH2 0x8B8 JUMPI PUSH1 0x0 DUP2 PUSH1 0x0 SWAP1 SSTORE POP PUSH1 0x1 ADD PUSH2 0x8A0 JUMP JUMPDEST POP SWAP1 JUMP JUMPDEST PUSH1 0x0 PUSH2 0x8CF PUSH2 0x8CA DUP5 PUSH2 0xBA8 JUMP JUMPDEST PUSH2 0xB83 JUMP JUMPDEST SWAP1 POP DUP3 DUP2 MSTORE PUSH1 0x20 DUP2 ADD DUP5 DUP5 DUP5 ADD GT ISZERO PUSH2 0x8EB JUMPI PUSH2 0x8EA PUSH2 0xE1D JUMP JUMPDEST JUMPDEST PUSH2 0x8F6 DUP5 DUP3 DUP6 PUSH2 0xC6E JUMP JUMPDEST POP SWAP4 SWAP3 POP POP POP JUMP JUMPDEST PUSH1 0x0 DUP2 CALLDATALOAD SWAP1 POP PUSH2 0x90D DUP2 PUSH2 0xE3D JUMP JUMPDEST SWAP3 SWAP2 POP POP JUMP JUMPDEST PUSH1 0x0 DUP3 PUSH1 0x1F DUP4 ADD SLT PUSH2 0x928 JUMPI PUSH2 0x927 PUSH2 0xE18 JUMP JUMPDEST JUMPDEST DUP2 CALLDATALOAD PUSH2 0x938 DUP5 DUP3 PUSH1 0x20 DUP7 ADD PUSH2 0x8BC JUMP JUMPDEST SWAP2 POP POP SWAP3 SWAP2 POP POP JUMP JUMPDEST PUSH1 0x0 DUP2 CALLDATALOAD SWAP1 POP PUSH2 0x950 DUP2 PUSH2 0xE54 JUMP JUMPDEST SWAP3 SWAP2 POP POP JUMP JUMPDEST PUSH1 0x0 PUSH1 0x20 DUP3 DUP5 SUB SLT ISZERO PUSH2 0x96C JUMPI PUSH2 0x96B PUSH2 0xE27 JUMP JUMPDEST JUMPDEST PUSH1 0x0 PUSH2 0x97A DUP5 DUP3 DUP6 ADD PUSH2 0x8FE JUMP JUMPDEST SWAP2 POP POP SWAP3 SWAP2 POP POP JUMP JUMPDEST PUSH1 0x0 DUP1 PUSH1 0x0 PUSH1 0x60 DUP5 DUP7 SUB SLT ISZERO PUSH2 0x99C JUMPI PUSH2 0x99B PUSH2 0xE27 JUMP JUMPDEST JUMPDEST PUSH1 0x0 DUP5 ADD CALLDATALOAD PUSH8 0xFFFFFFFFFFFFFFFF DUP2 GT ISZERO PUSH2 0x9BA JUMPI PUSH2 0x9B9 PUSH2 0xE22 JUMP JUMPDEST JUMPDEST PUSH2 0x9C6 DUP7 DUP3 DUP8 ADD PUSH2 0x913 JUMP JUMPDEST SWAP4 POP POP PUSH1 0x20 PUSH2 0x9D7 DUP7 DUP3 DUP8 ADD PUSH2 0x941 JUMP JUMPDEST SWAP3 POP POP PUSH1 0x40 PUSH2 0x9E8 DUP7 DUP3 DUP8 ADD PUSH2 0x8FE JUMP JUMPDEST SWAP2 POP POP SWAP3 POP SWAP3 POP SWAP3 JUMP JUMPDEST PUSH1 0x0 PUSH1 0x20 DUP3 DUP5 SUB SLT ISZERO PUSH2 0xA08 JUMPI PUSH2 0xA07 PUSH2 0xE27 JUMP JUMPDEST JUMPDEST PUSH1 0x0 PUSH2 0xA16 DUP5 DUP3 DUP6 ADD PUSH2 0x941 JUMP JUMPDEST SWAP2 POP POP SWAP3 SWAP2 POP POP JUMP JUMPDEST PUSH2 0xA28 DUP2 PUSH2 0xC26 JUMP JUMPDEST DUP3 MSTORE POP POP JUMP JUMPDEST PUSH2 0xA37 DUP2 PUSH2 0xC38 JUMP JUMPDEST DUP3 MSTORE POP POP JUMP JUMPDEST PUSH1 0x0 PUSH2 0xA48 DUP3 PUSH2 0xBD9 JUMP JUMPDEST PUSH2 0xA52 DUP2 DUP6 PUSH2 0xBE4 JUMP JUMPDEST SWAP4 POP PUSH2 0xA62 DUP2 DUP6 PUSH1 0x20 DUP7 ADD PUSH2 0xC7D JUMP JUMPDEST PUSH2 0xA6B DUP2 PUSH2 0xE2C JUMP JUMPDEST DUP5 ADD SWAP2 POP POP SWAP3 SWAP2 POP POP JUMP JUMPDEST PUSH2 0xA7F DUP2 PUSH2 0xC64 JUMP JUMPDEST DUP3 MSTORE POP POP JUMP JUMPDEST PUSH1 0x0 PUSH1 0x20 DUP3 ADD SWAP1 POP PUSH2 0xA9A PUSH1 0x0 DUP4 ADD DUP5 PUSH2 0xA1F JUMP JUMPDEST SWAP3 SWAP2 POP POP JUMP JUMPDEST PUSH1 0x0 PUSH1 0x20 DUP3 ADD SWAP1 POP PUSH2 0xAB5 PUSH1 0x0 DUP4 ADD DUP5 PUSH2 0xA2E JUMP JUMPDEST SWAP3 SWAP2 POP POP JUMP JUMPDEST PUSH1 0x0 PUSH1 0xA0 DUP3 ADD SWAP1 POP DUP2 DUP2 SUB PUSH1 0x0 DUP4 ADD MSTORE PUSH2 0xAD5 DUP2 DUP9 PUSH2 0xA3D JUMP JUMPDEST SWAP1 POP PUSH2 0xAE4 PUSH1 0x20 DUP4 ADD DUP8 PUSH2 0xA76 JUMP JUMPDEST PUSH2 0xAF1 PUSH1 0x40 DUP4 ADD DUP7 PUSH2 0xA1F JUMP JUMPDEST PUSH2 0xAFE PUSH1 0x60 DUP4 ADD DUP6 PUSH2 0xA2E JUMP JUMPDEST PUSH2 0xB0B PUSH1 0x80 DUP4 ADD DUP5 PUSH2 0xA76 JUMP JUMPDEST SWAP7 SWAP6 POP POP POP POP POP POP JUMP JUMPDEST PUSH1 0x0 PUSH1 0x20 DUP3 ADD SWAP1 POP PUSH2 0xB2A PUSH1 0x0 DUP4 ADD DUP5 PUSH2 0xA76 JUMP JUMPDEST SWAP3 SWAP2 POP POP JUMP JUMPDEST PUSH1 0x0 PUSH1 0xA0 DUP3 ADD SWAP1 POP PUSH2 0xB45 PUSH1 0x0 DUP4 ADD DUP9 PUSH2 0xA76 JUMP JUMPDEST PUSH2 0xB52 PUSH1 0x20 DUP4 ADD DUP8 PUSH2 0xA76 JUMP JUMPDEST PUSH2 0xB5F PUSH1 0x40 DUP4 ADD DUP7 PUSH2 0xA76 JUMP JUMPDEST PUSH2 0xB6C PUSH1 0x60 DUP4 ADD DUP6 PUSH2 0xA76 JUMP JUMPDEST PUSH2 0xB79 PUSH1 0x80 DUP4 ADD DUP5 PUSH2 0xA1F JUMP JUMPDEST SWAP7 SWAP6 POP POP POP POP POP POP JUMP JUMPDEST PUSH1 0x0 PUSH2 0xB8D PUSH2 0xB9E JUMP JUMPDEST SWAP1 POP PUSH2 0xB99 DUP3 DUP3 PUSH2 0xCE2 JUMP JUMPDEST SWAP2 SWAP1 POP JUMP JUMPDEST PUSH1 0x0 PUSH1 0x40 MLOAD SWAP1 POP SWAP1 JUMP JUMPDEST PUSH1 0x0 PUSH8 0xFFFFFFFFFFFFFFFF DUP3 GT ISZERO PUSH2 0xBC3 JUMPI PUSH2 0xBC2 PUSH2 0xDE9 JUMP JUMPDEST JUMPDEST PUSH2 0xBCC DUP3 PUSH2 0xE2C JUMP JUMPDEST SWAP1 POP PUSH1 0x20 DUP2 ADD SWAP1 POP SWAP2 SWAP1 POP JUMP JUMPDEST PUSH1 0x0 DUP2 MLOAD SWAP1 POP SWAP2 SWAP1 POP JUMP JUMPDEST PUSH1 0x0 DUP3 DUP3 MSTORE PUSH1 0x20 DUP3 ADD SWAP1 POP SWAP3 SWAP2 POP POP JUMP JUMPDEST PUSH1 0x0 PUSH2 0xC00 DUP3 PUSH2 0xC64 JUMP JUMPDEST SWAP2 POP PUSH2 0xC0B DUP4 PUSH2 0xC64 JUMP JUMPDEST SWAP3 POP DUP3 PUSH2 0xC1B JUMPI PUSH2 0xC1A PUSH2 0xD8B JUMP JUMPDEST JUMPDEST DUP3 DUP3 DIV SWAP1 POP SWAP3 SWAP2 POP POP JUMP JUMPDEST PUSH1 0x0 PUSH2 0xC31 DUP3 PUSH2 0xC44 JUMP JUMPDEST SWAP1 POP SWAP2 SWAP1 POP JUMP JUMPDEST PUSH1 0x0 DUP2 ISZERO ISZERO SWAP1 POP SWAP2 SWAP1 POP JUMP JUMPDEST PUSH1 0x0 PUSH20 0xFFFFFFFFFFFFFFFFFFFFFFFFFFFFFFFFFFFFFFFF DUP3 AND SWAP1 POP SWAP2 SWAP1 POP JUMP JUMPDEST PUSH1 0x0 DUP2 SWAP1 POP SWAP2 SWAP1 POP JUMP JUMPDEST DUP3 DUP2 DUP4 CALLDATACOPY PUSH1 0x0 DUP4 DUP4 ADD MSTORE POP POP POP JUMP JUMPDEST PUSH1 0x0 JUMPDEST DUP4 DUP2 LT ISZERO PUSH2 0xC9B JUMPI DUP1 DUP3 ADD MLOAD DUP2 DUP5 ADD MSTORE PUSH1 0x20 DUP2 ADD SWAP1 POP PUSH2 0xC80 JUMP JUMPDEST DUP4 DUP2 GT ISZERO PUSH2 0xCAA JUMPI PUSH1 0x0 DUP5 DUP5 ADD MSTORE JUMPDEST POP POP POP POP JUMP JUMPDEST PUSH1 0x0 PUSH1 0x2 DUP3 DIV SWAP1 POP PUSH1 0x1 DUP3 AND DUP1 PUSH2 0xCC8 JUMPI PUSH1 0x7F DUP3 AND SWAP2 POP JUMPDEST PUSH1 0x20 DUP3 LT DUP2 EQ ISZERO PUSH2 0xCDC JUMPI PUSH2 0xCDB PUSH2 0xDBA JUMP JUMPDEST JUMPDEST POP SWAP2 SWAP1 POP JUMP JUMPDEST PUSH2 0xCEB DUP3 PUSH2 0xE2C JUMP JUMPDEST DUP2 ADD DUP2 DUP2 LT PUSH8 0xFFFFFFFFFFFFFFFF DUP3 GT OR ISZERO PUSH2 0xD0A JUMPI PUSH2 0xD09 PUSH2 0xDE9 JUMP JUMPDEST JUMPDEST DUP1 PUSH1 0x40 MSTORE POP POP POP JUMP JUMPDEST PUSH1 0x0 PUSH2 0xD1E DUP3 PUSH2 0xC64 JUMP JUMPDEST SWAP2 POP PUSH32 0xFFFFFFFFFFFFFFFFFFFFFFFFFFFFFFFFFFFFFFFFFFFFFFFFFFFFFFFFFFFFFFFF DUP3 EQ ISZERO PUSH2 0xD51 JUMPI PUSH2 0xD50 PUSH2 0xD5C JUMP JUMPDEST JUMPDEST PUSH1 0x1 DUP3 ADD SWAP1 POP SWAP2 SWAP1 POP JUMP JUMPDEST PUSH32 0x4E487B7100000000000000000000000000000000000000000000000000000000 PUSH1 0x0 MSTORE PUSH1 0x11 PUSH1 0x4 MSTORE PUSH1 0x24 PUSH1 0x0 REVERT JUMPDEST PUSH32 0x4E487B7100000000000000000000000000000000000000000000000000000000 PUSH1 0x0 MSTORE PUSH1 0x12 PUSH1 0x4 MSTORE PUSH1 0x24 PUSH1 0x0 REVERT JUMPDEST PUSH32 0x4E487B7100000000000000000000000000000000000000000000000000000000 PUSH1 0x0 MSTORE PUSH1 0x22 PUSH1 0x4 MSTORE PUSH1 0x24 PUSH1 0x0 REVERT JUMPDEST PUSH32 0x4E487B7100000000000000000000000000000000000000000000000000000000 PUSH1 0x0 MSTORE PUSH1 0x41 PUSH1 0x4 MSTORE PUSH1 0x24 PUSH1 0x0 REVERT JUMPDEST PUSH1 0x0 DUP1 REVERT JUMPDEST PUSH1 0x0 DUP1 REVERT JUMPDEST PUSH1 0x0 DUP1 REVERT JUMPDEST PUSH1 0x0 DUP1 REVERT JUMPDEST PUSH1 0x0 PUSH1 0x1F NOT PUSH1 0x1F DUP4 ADD AND SWAP1 POP SWAP2 SWAP1 POP JUMP JUMPDEST PUSH2 0xE46 DUP2 PUSH2 0xC26 JUMP JUMPDEST DUP2 EQ PUSH2 0xE51 JUMPI PUSH1 0x0 DUP1 REVERT JUMPDEST POP JUMP JUMPDEST PUSH2 0xE5D DUP2 PUSH2 0xC64 JUMP JUMPDEST DUP2 EQ PUSH2 0xE68 JUMPI PUSH1 0x0 DUP1 REVERT JUMPDEST POP JUMP INVALID LOG2 PUSH5 0x6970667358 0x22 SLT KECCAK256 0xF PUSH9 0x2239619FC6B1A25F61 PUSH27 0xC81CCC2D184204B10B10BDF735C4A72856B7F6464736F6C634300 ADDMOD SMOD STOP CALLER LOG2 PUSH5 0x6970667358 0x22 SLT KECCAK256 CREATE SWAP11 LOG1 0xD4 0x24 SLT XOR 0xA8 PUSH18 0x23D2C92C316CD5513E0334E2DF5052DDCC0 PUSH9 0xD7A7CD3F64736F6C63 NUMBER STOP ADDMOD SMOD STOP CALLER "},"gasEstimates":{"creation":{"codeDepositCost":"1043400","executionCost":"1087","totalCost":"1044487"},"external":{"createCampaign(uint256)":"infinite","deployedCampaigns(uint256)":"4934","getDeployedCampaigns()":"infinite"}},"methodIdentifiers":{"createCampaign(uint256)":"a3303a75","deployedCampaigns(uint256)":"339d50a5","getDeployedCampaigns()":"4acb9d4f"}},"storageLayout":{"storage":[{"astId":4,"contract":"Campaign.sol:CampaignFactory","label":"deployedCampaigns","offset":0,"slot":"0","type":"t_array(t_address)dyn_storage"}],"types":{"t_address":{"encoding":"inplace","label":"address","numberOfBytes":"20"},"t_array(t_address)dyn_storage":{"base":"t_address","encoding":"dynamic_array","label":"address[]","numberOfBytes":"32"}}},"userdoc":{"kind":"user","methods":{},"version":1}}